{
  "transactions": [
    {
      "hash": "0x2284edf08601a66c6f68ce89363b3f6721c46cf2f97a8ffcca21c4c9cbabe6b8",
      "transactionType": "CALL",
      "contractName": null,
      "contractAddress": "0x4d3922e731023cd5fba64f495e547d5f1b931128",
      "function": "mint(address,uint256)",
      "arguments": [
        "0xE21D134Daf5159c467D8B2Bfc0eCe6dc9d406BB1",
        "132000000000"
      ],
      "transaction": {
        "from": "0xe21d134daf5159c467d8b2bfc0ece6dc9d406bb1",
        "to": "0x4d3922e731023cd5fba64f495e547d5f1b931128",
        "gas": "0xb879",
        "value": "0x0",
        "input": "0x40c10f19000000000000000000000000e21d134daf5159c467d8b2bfc0ece6dc9d406bb10000000000000000000000000000000000000000000000000000001ebbd02800",
        "nonce": "0xb",
        "chainId": "0xaa36a7"
      },
      "additionalContracts": [],
      "isFixedGasLimit": false
    },
    {
      "hash": "0x56f41d870ac7122b012bee41178375f3db829d75514d521dce6b42c0ff603d3f",
      "transactionType": "CALL",
      "contractName": null,
      "contractAddress": "0x8d952c27ac46b1a0360144c6094ea6159a991a95",
      "function": "mint(address,uint256)",
      "arguments": [
        "0xE21D134Daf5159c467D8B2Bfc0eCe6dc9d406BB1",
        "10000000000000000000"
      ],
      "transaction": {
        "from": "0xe21d134daf5159c467d8b2bfc0ece6dc9d406bb1",
        "to": "0x8d952c27ac46b1a0360144c6094ea6159a991a95",
        "gas": "0xb89a",
        "value": "0x0",
        "input": "0x40c10f19000000000000000000000000e21d134daf5159c467d8b2bfc0ece6dc9d406bb10000000000000000000000000000000000000000000000008ac7230489e80000",
        "nonce": "0xc",
        "chainId": "0xaa36a7"
      },
      "additionalContracts": [],
      "isFixedGasLimit": false
    },
    {
      "hash": "0x39affbb35ad55371753afee25abf6c1cec87f68f6064816fe453514535a51d36",
      "transactionType": "CALL",
      "contractName": null,
      "contractAddress": "0x83cc67c3c80a9335d4a1478e190b7735c75adfa9",
      "function": "setPrice(int256)",
      "arguments": [
        "200000000000"
      ],
      "transaction": {
        "from": "0xe21d134daf5159c467d8b2bfc0ece6dc9d406bb1",
        "to": "0x83cc67c3c80a9335d4a1478e190b7735c75adfa9",
        "gas": "0x9719",
        "value": "0x0",
        "input": "0xf7a308060000000000000000000000000000000000000000000000000000002e90edd000",
        "nonce": "0xd",
        "chainId": "0xaa36a7"
      },
      "additionalContracts": [],
      "isFixedGasLimit": false
    },
    {
      "hash": "0x1f9cb61c39f9fcaf5453bc1a474ce40160ff99c8bb0f4b70a5a8bd9534d70ed8",
      "transactionType": "CALL",
      "contractName": null,
      "contractAddress": "0x4d3922e731023cd5fba64f495e547d5f1b931128",
      "function": "approve(address,uint256)",
      "arguments": [
        "0xE5543F72AF9411936497Dc7816eB4131bB705D3B",
        "100000000000"
      ],
      "transaction": {
        "from": "0xe21d134daf5159c467d8b2bfc0ece6dc9d406bb1",
        "to": "0x4d3922e731023cd5fba64f495e547d5f1b931128",
        "gas": "0xfa09",
        "value": "0x0",
        "input": "0x095ea7b3000000000000000000000000e5543f72af9411936497dc7816eb4131bb705d3b000000000000000000000000000000000000000000000000000000174876e800",
        "nonce": "0xe",
        "chainId": "0xaa36a7"
      },
      "additionalContracts": [],
      "isFixedGasLimit": false
    },
    {
      "hash": "0x2681655b9807cf7658f9c7ca5a8209855b330c99731afffd4b03981c90f32a1a",
      "transactionType": "CALL",
      "contractName": null,
      "contractAddress": "0xe5543f72af9411936497dc7816eb4131bb705d3b",
      "function": "deposit(uint256,address)",
      "arguments": [
        "100000000000",
        "0xE21D134Daf5159c467D8B2Bfc0eCe6dc9d406BB1"
      ],
      "transaction": {
        "from": "0xe21d134daf5159c467d8b2bfc0ece6dc9d406bb1",
        "to": "0xe5543f72af9411936497dc7816eb4131bb705d3b",
        "gas": "0x3e548",
        "value": "0x0",
        "input": "0x6e553f65000000000000000000000000000000000000000000000000000000174876e800000000000000000000000000e21d134daf5159c467d8b2bfc0ece6dc9d406bb1",
        "nonce": "0xf",
        "chainId": "0xaa36a7"
      },
      "additionalContracts": [],
      "isFixedGasLimit": false
    },
    {
      "hash": "0xbc69a06f422cd18f02fce1365728d7807724bac751f3ab022ac62c95eec3b1ec",
      "transactionType": "CALL",
      "contractName": null,
      "contractAddress": "0x8d952c27ac46b1a0360144c6094ea6159a991a95",
      "function": "approve(address,uint256)",
      "arguments": [
        "0xC223C0634c6312Cb3Bf23e847f1C21Ae9ee9E907",
        "10000000000000000000"
      ],
      "transaction": {
        "from": "0xe21d134daf5159c467d8b2bfc0ece6dc9d406bb1",
        "to": "0x8d952c27ac46b1a0360144c6094ea6159a991a95",
        "gas": "0xfa29",
        "value": "0x0",
        "input": "0x095ea7b3000000000000000000000000c223c0634c6312cb3bf23e847f1c21ae9ee9e9070000000000000000000000000000000000000000000000008ac7230489e80000",
        "nonce": "0x10",
        "chainId": "0xaa36a7"
      },
      "additionalContracts": [],
      "isFixedGasLimit": false
    },
    {
      "hash": "0xaf5d3428101c3f8d73320bd7cf80d3bb0e8241b57092a73695c1a57a2952097c",
      "transactionType": "CALL",
      "contractName": null,
      "contractAddress": "0xc223c0634c6312cb3bf23e847f1c21ae9ee9e907",
      "function": "depositCollateral(address,uint256)",
      "arguments": [
        "0x8d952c27aC46B1A0360144c6094Ea6159a991A95",
        "10000000000000000000"
      ],
      "transaction": {
        "from": "0xe21d134daf5159c467d8b2bfc0ece6dc9d406bb1",
        "to": "0xc223c0634c6312cb3bf23e847f1c21ae9ee9e907",
        "gas": "0x3c8b0",
        "value": "0x0",
        "input": "0xa5d5db0c0000000000000000000000008d952c27ac46b1a0360144c6094ea6159a991a950000000000000000000000000000000000000000000000008ac7230489e80000",
        "nonce": "0x11",
        "chainId": "0xaa36a7"
      },
      "additionalContracts": [],
      "isFixedGasLimit": false
    },
    {
      "hash": "0x1223cec45cd269ea8548e74acd80e987c55a4f6499ea85cdeb7a971fbfe51a35",
      "transactionType": "CALL",
      "contractName": null,
      "contractAddress": "0xc223c0634c6312cb3bf23e847f1c21ae9ee9e907",
      "function": "borrow(uint256)",
      "arguments": [
        "16000000000"
      ],
      "transaction": {
        "from": "0xe21d134daf5159c467d8b2bfc0ece6dc9d406bb1",
        "to": "0xc223c0634c6312cb3bf23e847f1c21ae9ee9e907",
        "gas": "0x3ed9d",
        "value": "0x0",
        "input": "0xc5ebeaec00000000000000000000000000000000000000000000000000000003b9aca000",
        "nonce": "0x12",
        "chainId": "0xaa36a7"
      },
      "additionalContracts": [],
      "isFixedGasLimit": false
    },
    {
      "hash": "0xd4c7da39620d8b12ceebb211ff05794a0842356607de6de09b488777e5b88ebb",
      "transactionType": "CALL",
      "contractName": null,
      "contractAddress": "0x83cc67c3c80a9335d4a1478e190b7735c75adfa9",
      "function": "setPrice(int256)",
      "arguments": [
        "40000000000"
      ],
      "transaction": {
        "from": "0xe21d134daf5159c467d8b2bfc0ece6dc9d406bb1",
        "to": "0x83cc67c3c80a9335d4a1478e190b7735c75adfa9",
        "gas": "0x9719",
        "value": "0x0",
        "input": "0xf7a3080600000000000000000000000000000000000000000000000000000009502f9000",
        "nonce": "0x13",
        "chainId": "0xaa36a7"
      },
      "additionalContracts": [],
      "isFixedGasLimit": false
    },
    {
      "hash": "0x7df972ed34fcc8900a8510f618e69ab9b8e0e86fd29013cbda696c4ac1c60b65",
      "transactionType": "CALL",
      "contractName": null,
      "contractAddress": "0x4d3922e731023cd5fba64f495e547d5f1b931128",
      "function": "approve(address,uint256)",
      "arguments": [
        "0xC223C0634c6312Cb3Bf23e847f1C21Ae9ee9E907",
        "115792089237316195423570985008687907853269984665640564039457584007913129639935"
      ],
      "transaction": {
        "from": "0xe21d134daf5159c467d8b2bfc0ece6dc9d406bb1",
        "to": "0x4d3922e731023cd5fba64f495e547d5f1b931128",
        "gas": "0xfbd9",
        "value": "0x0",
        "input": "0x095ea7b3000000000000000000000000c223c0634c6312cb3bf23e847f1c21ae9ee9e907ffffffffffffffffffffffffffffffffffffffffffffffffffffffffffffffff",
        "nonce": "0x14",
        "chainId": "0xaa36a7"
      },
      "additionalContracts": [],
      "isFixedGasLimit": false
    },
    {
      "hash": "0xd6be6604b6b45e14db54c5a67d1ff4a301b7eb346bc0699dbe27ecdd02dec7cc",
      "transactionType": "CALL",
      "contractName": null,
      "contractAddress": "0xc223c0634c6312cb3bf23e847f1c21ae9ee9e907",
      "function": "liquidate(address)",
      "arguments": [
        "0xE21D134Daf5159c467D8B2Bfc0eCe6dc9d406BB1"
      ],
      "transaction": {
        "from": "0xe21d134daf5159c467d8b2bfc0ece6dc9d406bb1",
        "to": "0xc223c0634c6312cb3bf23e847f1c21ae9ee9e907",
        "gas": "0x5d75d",
        "value": "0x0",
        "input": "0x2f865568000000000000000000000000e21d134daf5159c467d8b2bfc0ece6dc9d406bb1",
        "nonce": "0x15",
        "chainId": "0xaa36a7"
      },
      "additionalContracts": [],
      "isFixedGasLimit": false
    },
    {
      "hash": "0x684be4cc4a05a4a70cc175f67bbb1d7d21eff93c85fcc67b5724861e406035e2",
      "transactionType": "CALL",
      "contractName": null,
      "contractAddress": "0x83cc67c3c80a9335d4a1478e190b7735c75adfa9",
      "function": "setPrice(int256)",
      "arguments": [
        "200000000000"
      ],
      "transaction": {
        "from": "0xe21d134daf5159c467d8b2bfc0ece6dc9d406bb1",
        "to": "0x83cc67c3c80a9335d4a1478e190b7735c75adfa9",
        "gas": "0x9719",
        "value": "0x0",
        "input": "0xf7a308060000000000000000000000000000000000000000000000000000002e90edd000",
        "nonce": "0x16",
        "chainId": "0xaa36a7"
      },
      "additionalContracts": [],
      "isFixedGasLimit": false
    }
  ],
  "receipts": [
    {
      "status": "0x1",
      "cumulativeGasUsed": "0x12ab975",
      "logs": [
        {
          "address": "0x4d3922e731023cd5fba64f495e547d5f1b931128",
          "topics": [
            "0xddf252ad1be2c89b69c2b068fc378daa952ba7f163c4a11628f55a4df523b3ef",
            "0x0000000000000000000000000000000000000000000000000000000000000000",
            "0x000000000000000000000000e21d134daf5159c467d8b2bfc0ece6dc9d406bb1"
          ],
          "data": "0x0000000000000000000000000000000000000000000000000000001ebbd02800",
          "blockHash": "0x30125cd078f302e83a3b0047fcee40967c330f3a9ad46cf49f52324b3b158b6b",
          "blockNumber": "0x99df7a",
          "blockTimestamp": "0x696f5130",
          "transactionHash": "0xaf5d3428101c3f8d73320bd7cf80d3bb0e8241b57092a73695c1a57a2952097c",
          "transactionIndex": "0x2b",
          "logIndex": "0x240",
          "removed": false
        }
      ],
      "logsBloom": "0x00000000000000000000000000000000000000000000000000000000000000200000000000000000000000000000000000000000020000000000000000000000000000000000000000000008000000000000000000000000000000000000000000000000020000000000000000000800000000000000000000000010000000000000000000000000000000000000000000000000000000000000000000000000000000000000000000000000000000000000000000000000000000000000000000000002000100000000000000001000000000000000000000400000000020000008000000000000000000000000000000000000000000000000000000000000",
      "type": "0x2",
      "transactionHash": "0xaf5d3428101c3f8d73320bd7cf80d3bb0e8241b57092a73695c1a57a2952097c",
      "transactionIndex": "0x2b",
      "blockHash": "0x30125cd078f302e83a3b0047fcee40967c330f3a9ad46cf49f52324b3b158b6b",
      "blockNumber": "0x99df7a",
      "gasUsed": "0x858f",
      "effectiveGasPrice": "0x5e4ae094",
      "from": "0xe21d134daf5159c467d8b2bfc0ece6dc9d406bb1",
      "to": "0x4d3922e731023cd5fba64f495e547d5f1b931128",
      "contractAddress": null
    },
    {
      "status": "0x1",
      "cumulativeGasUsed": "0x12b3f1c",
      "logs": [
        {
          "address": "0x8d952c27ac46b1a0360144c6094ea6159a991a95",
          "topics": [
            "0xddf252ad1be2c89b69c2b068fc378daa952ba7f163c4a11628f55a4df523b3ef",
            "0x0000000000000000000000000000000000000000000000000000000000000000",
            "0x000000000000000000000000e21d134daf5159c467d8b2bfc0ece6dc9d406bb1"
          ],
          "data": "0x0000000000000000000000000000000000000000000000008ac7230489e80000",
          "blockHash": "0x30125cd078f302e83a3b0047fcee40967c330f3a9ad46cf49f52324b3b158b6b",
          "blockNumber": "0x99df7a",
          "blockTimestamp": "0x696f5130",
          "transactionHash": "0xbc69a06f422cd18f02fce1365728d7807724bac751f3ab022ac62c95eec3b1ec",
          "transactionIndex": "0x2c",
          "logIndex": "0x241",
          "removed": false
        }
      ],
      "logsBloom": "0x00000000000000000000000000000000040000000000000000000020000000000000000000000000000000000000000000000000020000000000000000000000000000000000000040000008000000000000000000000000000000000000000000000000020000000000000000000800000000000000000000000010000000000000000000000000000000000000000000000000000000000000000000000000000000000000000000000000000000000000000000000000000000000000000000000002000100000000000000000000000000000000000000000000000020000008000000000000000000000000000000000000000000000000000000000000",
      "type": "0x2",
      "transactionHash": "0xbc69a06f422cd18f02fce1365728d7807724bac751f3ab022ac62c95eec3b1ec",
      "transactionIndex": "0x2c",
      "blockHash": "0x30125cd078f302e83a3b0047fcee40967c330f3a9ad46cf49f52324b3b158b6b",
      "blockNumber": "0x99df7a",
      "gasUsed": "0x85a7",
      "effectiveGasPrice": "0x5e4ae094",
      "from": "0xe21d134daf5159c467d8b2bfc0ece6dc9d406bb1",
      "to": "0x8d952c27ac46b1a0360144c6094ea6159a991a95",
      "contractAddress": null
    },
    {
      "status": "0x1",
      "cumulativeGasUsed": "0x12ba66d",
      "logs": [],
      "logsBloom": "0x00000000000000000000000000000000000000000000000000000000000000000000000000000000000000000000000000000000000000000000000000000000000000000000000000000000000000000000000000000000000000000000000000000000000000000000000000000000000000000000000000000000000000000000000000000000000000000000000000000000000000000000000000000000000000000000000000000000000000000000000000000000000000000000000000000000000000000000000000000000000000000000000000000000000000000000000000000000000000000000000000000000000000000000000000000000",
      "type": "0x2",
      "transactionHash": "0x7df972ed34fcc8900a8510f618e69ab9b8e0e86fd29013cbda696c4ac1c60b65",
      "transactionIndex": "0x2d",
      "blockHash": "0x30125cd078f302e83a3b0047fcee40967c330f3a9ad46cf49f52324b3b158b6b",
      "blockNumber": "0x99df7a",
      "gasUsed": "0x6751",
      "effectiveGasPrice": "0x5e4ae094",
      "from": "0xe21d134daf5159c467d8b2bfc0ece6dc9d406bb1",
      "to": "0x83cc67c3c80a9335d4a1478e190b7735c75adfa9",
      "contractAddress": null
    },
    {
      "status": "0x1",
      "cumulativeGasUsed": "0x12c5b73",
      "logs": [
        {
          "address": "0x4d3922e731023cd5fba64f495e547d5f1b931128",
          "topics": [
            "0x8c5be1e5ebec7d5bd14f71427d1e84f3dd0314c0f7b2291e5b200ac8c7c3b925",
            "0x000000000000000000000000e21d134daf5159c467d8b2bfc0ece6dc9d406bb1",
            "0x000000000000000000000000e5543f72af9411936497dc7816eb4131bb705d3b"
          ],
          "data": "0x000000000000000000000000000000000000000000000000000000174876e800",
          "blockHash": "0x30125cd078f302e83a3b0047fcee40967c330f3a9ad46cf49f52324b3b158b6b",
          "blockNumber": "0x99df7a",
          "blockTimestamp": "0x696f5130",
          "transactionHash": "0x2681655b9807cf7658f9c7ca5a8209855b330c99731afffd4b03981c90f32a1a",
          "transactionIndex": "0x2e",
          "logIndex": "0x242",
          "removed": false
        }
      ],
      "logsBloom": "0x00000000000000000000000000002000000000000000000000000000000000200000000000000000000000000000000000000000020000000000010000200000000000000000000000000100000000000000000000000000000000000000000000000000000000000000000000000000000000000000000000000000000000000000000000000000000000000000000000000000000000000000000000000000020000000000000000000000000000000000000000000000000000000000000000000000000100000000000000001000000000000000000000400000000000000018000000000000000000000000000000000000000000000000000000000000",
      "type": "0x2",
      "transactionHash": "0x2681655b9807cf7658f9c7ca5a8209855b330c99731afffd4b03981c90f32a1a",
      "transactionIndex": "0x2e",
      "blockHash": "0x30125cd078f302e83a3b0047fcee40967c330f3a9ad46cf49f52324b3b158b6b",
      "blockNumber": "0x99df7a",
      "gasUsed": "0xb506",
      "effectiveGasPrice": "0x5e4ae094",
      "from": "0xe21d134daf5159c467d8b2bfc0ece6dc9d406bb1",
      "to": "0x4d3922e731023cd5fba64f495e547d5f1b931128",
      "contractAddress": null
    },
    {
      "status": "0x1",
      "cumulativeGasUsed": "0x12f2d77",
      "logs": [
        {
          "address": "0x4d3922e731023cd5fba64f495e547d5f1b931128",
          "topics": [
            "0xddf252ad1be2c89b69c2b068fc378daa952ba7f163c4a11628f55a4df523b3ef",
            "0x000000000000000000000000e21d134daf5159c467d8b2bfc0ece6dc9d406bb1",
            "0x000000000000000000000000e5543f72af9411936497dc7816eb4131bb705d3b"
          ],
          "data": "0x000000000000000000000000000000000000000000000000000000174876e800",
          "blockHash": "0x30125cd078f302e83a3b0047fcee40967c330f3a9ad46cf49f52324b3b158b6b",
          "blockNumber": "0x99df7a",
          "blockTimestamp": "0x696f5130",
          "transactionHash": "0x1223cec45cd269ea8548e74acd80e987c55a4f6499ea85cdeb7a971fbfe51a35",
          "transactionIndex": "0x2f",
          "logIndex": "0x243",
          "removed": false
        },
        {
          "address": "0xe5543f72af9411936497dc7816eb4131bb705d3b",
          "topics": [
            "0xddf252ad1be2c89b69c2b068fc378daa952ba7f163c4a11628f55a4df523b3ef",
            "0x0000000000000000000000000000000000000000000000000000000000000000",
            "0x000000000000000000000000e21d134daf5159c467d8b2bfc0ece6dc9d406bb1"
          ],
          "data": "0x000000000000000000000000000000000000000000000000000000174876e800",
          "blockHash": "0x30125cd078f302e83a3b0047fcee40967c330f3a9ad46cf49f52324b3b158b6b",
          "blockNumber": "0x99df7a",
          "blockTimestamp": "0x696f5130",
          "transactionHash": "0x1223cec45cd269ea8548e74acd80e987c55a4f6499ea85cdeb7a971fbfe51a35",
          "transactionIndex": "0x2f",
          "logIndex": "0x244",
          "removed": false
        },
        {
          "address": "0xe5543f72af9411936497dc7816eb4131bb705d3b",
          "topics": [
            "0xdcbc1c05240f31ff3ad067ef1ee35ce4997762752e3a095284754544f4c709d7",
            "0x000000000000000000000000e21d134daf5159c467d8b2bfc0ece6dc9d406bb1",
            "0x000000000000000000000000e21d134daf5159c467d8b2bfc0ece6dc9d406bb1"
          ],
          "data": "0x000000000000000000000000000000000000000000000000000000174876e800000000000000000000000000000000000000000000000000000000174876e800",
          "blockHash": "0x30125cd078f302e83a3b0047fcee40967c330f3a9ad46cf49f52324b3b158b6b",
          "blockNumber": "0x99df7a",
          "blockTimestamp": "0x696f5130",
          "transactionHash": "0x1223cec45cd269ea8548e74acd80e987c55a4f6499ea85cdeb7a971fbfe51a35",
          "transactionIndex": "0x2f",
          "logIndex": "0x245",
          "removed": false
        },
        {
          "address": "0x4d3922e731023cd5fba64f495e547d5f1b931128",
          "topics": [
            "0xddf252ad1be2c89b69c2b068fc378daa952ba7f163c4a11628f55a4df523b3ef",
            "0x000000000000000000000000e5543f72af9411936497dc7816eb4131bb705d3b",
            "0x000000000000000000000000b6c036875b7c36b2863fc40f61f019df0b57ccbd"
          ],
          "data": "0x000000000000000000000000000000000000000000000000000000174876e800",
          "blockHash": "0x30125cd078f302e83a3b0047fcee40967c330f3a9ad46cf49f52324b3b158b6b",
          "blockNumber": "0x99df7a",
          "blockTimestamp": "0x696f5130",
          "transactionHash": "0x1223cec45cd269ea8548e74acd80e987c55a4f6499ea85cdeb7a971fbfe51a35",
          "transactionIndex": "0x2f",
          "logIndex": "0x246",
          "removed": false
        },
        {
          "address": "0xb6c036875b7c36b2863fc40f61f019df0b57ccbd",
          "topics": [
            "0xddf252ad1be2c89b69c2b068fc378daa952ba7f163c4a11628f55a4df523b3ef",
            "0x0000000000000000000000000000000000000000000000000000000000000000",
            "0x000000000000000000000000e5543f72af9411936497dc7816eb4131bb705d3b"
          ],
          "data": "0x000000000000000000000000000000000000000000000000000000174876e800",
          "blockHash": "0x30125cd078f302e83a3b0047fcee40967c330f3a9ad46cf49f52324b3b158b6b",
          "blockNumber": "0x99df7a",
          "blockTimestamp": "0x696f5130",
          "transactionHash": "0x1223cec45cd269ea8548e74acd80e987c55a4f6499ea85cdeb7a971fbfe51a35",
          "transactionIndex": "0x2f",
          "logIndex": "0x247",
          "removed": false
        }
      ],
      "logsBloom": "0x00000000000000000000000002002000000000000000000000000000000000200000000000000000000000000000800000000000020000000000010000008000000000400000000000000108900000010000000000000000000000000000000000000000020000000000000000000800000000000004000000000010000000000000000000000000000000000000000000000002004800000000000000000000000000000000000000000000000000000000000000000000000000000000000000000002000100000000000000001000000000000008000000400000000020000008000000000000000000000000000000000000000000000000000000000000",
      "type": "0x2",
      "transactionHash": "0x1223cec45cd269ea8548e74acd80e987c55a4f6499ea85cdeb7a971fbfe51a35",
      "transactionIndex": "0x2f",
      "blockHash": "0x30125cd078f302e83a3b0047fcee40967c330f3a9ad46cf49f52324b3b158b6b",
      "blockNumber": "0x99df7a",
      "gasUsed": "0x2d204",
      "effectiveGasPrice": "0x5e4ae094",
      "from": "0xe21d134daf5159c467d8b2bfc0ece6dc9d406bb1",
      "to": "0xe5543f72af9411936497dc7816eb4131bb705d3b",
      "contractAddress": null
    },
    {
      "status": "0x1",
      "cumulativeGasUsed": "0x12fe295",
      "logs": [
        {
          "address": "0x8d952c27ac46b1a0360144c6094ea6159a991a95",
          "topics": [
            "0x8c5be1e5ebec7d5bd14f71427d1e84f3dd0314c0f7b2291e5b200ac8c7c3b925",
            "0x000000000000000000000000e21d134daf5159c467d8b2bfc0ece6dc9d406bb1",
            "0x000000000000000000000000c223c0634c6312cb3bf23e847f1c21ae9ee9e907"
          ],
          "data": "0x0000000000000000000000000000000000000000000000008ac7230489e80000",
          "blockHash": "0x30125cd078f302e83a3b0047fcee40967c330f3a9ad46cf49f52324b3b158b6b",
          "blockNumber": "0x99df7a",
          "blockTimestamp": "0x696f5130",
          "transactionHash": "0x2284edf08601a66c6f68ce89363b3f6721c46cf2f97a8ffcca21c4c9cbabe6b8",
          "transactionIndex": "0x30",
          "logIndex": "0x248",
          "removed": false
        }
      ],
      "logsBloom": "0x00000000000000000000000000000000040000000000000000000020000000000000000000000000000000000000000000000000020000000000000000200000040000000000000040000000000000000000000000000000000000000000000000000000000000000000000000000000000000000000000000000000000000000000000000000000000000000000000000000000000000000000000000000000020000000000000000000000000000000000000000000000000000400000000000000000004100000000000000000000000000000000000000000000000000000018000000000000000000000000000000000000000000000000000000000000",
      "type": "0x2",
      "transactionHash": "0x2284edf08601a66c6f68ce89363b3f6721c46cf2f97a8ffcca21c4c9cbabe6b8",
      "transactionIndex": "0x30",
      "blockHash": "0x30125cd078f302e83a3b0047fcee40967c330f3a9ad46cf49f52324b3b158b6b",
      "blockNumber": "0x99df7a",
      "gasUsed": "0xb51e",
      "effectiveGasPrice": "0x5e4ae094",
      "from": "0xe21d134daf5159c467d8b2bfc0ece6dc9d406bb1",
      "to": "0x8d952c27ac46b1a0360144c6094ea6159a991a95",
      "contractAddress": null
    },
    {
      "status": "0x1",
      "cumulativeGasUsed": "0x13278ef",
      "logs": [
        {
          "address": "0x8d952c27ac46b1a0360144c6094ea6159a991a95",
          "topics": [
            "0xddf252ad1be2c89b69c2b068fc378daa952ba7f163c4a11628f55a4df523b3ef",
            "0x000000000000000000000000e21d134daf5159c467d8b2bfc0ece6dc9d406bb1",
            "0x000000000000000000000000c223c0634c6312cb3bf23e847f1c21ae9ee9e907"
          ],
          "data": "0x0000000000000000000000000000000000000000000000008ac7230489e80000",
          "blockHash": "0x30125cd078f302e83a3b0047fcee40967c330f3a9ad46cf49f52324b3b158b6b",
          "blockNumber": "0x99df7a",
          "blockTimestamp": "0x696f5130",
          "transactionHash": "0x39affbb35ad55371753afee25abf6c1cec87f68f6064816fe453514535a51d36",
          "transactionIndex": "0x31",
          "logIndex": "0x249",
          "removed": false
        },
        {
          "address": "0xc223c0634c6312cb3bf23e847f1c21ae9ee9e907",
          "topics": [
            "0xf1c0dd7e9b98bbff859029005ef89b127af049cd18df1a8d79f0b7e019911e56",
            "0x000000000000000000000000e21d134daf5159c467d8b2bfc0ece6dc9d406bb1",
            "0x0000000000000000000000008d952c27ac46b1a0360144c6094ea6159a991a95"
          ],
          "data": "0x0000000000000000000000000000000000000000000000008ac7230489e80000",
          "blockHash": "0x30125cd078f302e83a3b0047fcee40967c330f3a9ad46cf49f52324b3b158b6b",
          "blockNumber": "0x99df7a",
          "blockTimestamp": "0x696f5130",
          "transactionHash": "0x39affbb35ad55371753afee25abf6c1cec87f68f6064816fe453514535a51d36",
          "transactionIndex": "0x31",
          "logIndex": "0x24a",
          "removed": false
        }
      ],
      "logsBloom": "0x00000000000000000000000000000000040000000000000000000020000000000000000000000000000000000000000000000000020000000000000000000000040000000000000040000008000000000000000000000000000000000000000000000000000000000800000000000100000000000000000000000010000000000000000000000000000000000000000000000000000000000000000000000000000000000000000000000000040000008100000000000000000000400000000000000002004100000000000000000000010000008000000080000000400000000008000000000000000000000000000000000000000000000000000000000000",
      "type": "0x2",
      "transactionHash": "0x39affbb35ad55371753afee25abf6c1cec87f68f6064816fe453514535a51d36",
      "transactionIndex": "0x31",
      "blockHash": "0x30125cd078f302e83a3b0047fcee40967c330f3a9ad46cf49f52324b3b158b6b",
      "blockNumber": "0x99df7a",
      "gasUsed": "0x2965a",
      "effectiveGasPrice": "0x5e4ae094",
      "from": "0xe21d134daf5159c467d8b2bfc0ece6dc9d406bb1",
      "to": "0xc223c0634c6312cb3bf23e847f1c21ae9ee9e907",
      "contractAddress": null
    },
    {
      "status": "0x1",
      "cumulativeGasUsed": "0x13550fc",
      "logs": [
        {
          "address": "0xb6c036875b7c36b2863fc40f61f019df0b57ccbd",
          "topics": [
            "0xddf252ad1be2c89b69c2b068fc378daa952ba7f163c4a11628f55a4df523b3ef",
            "0x000000000000000000000000e5543f72af9411936497dc7816eb4131bb705d3b",
            "0x0000000000000000000000000000000000000000000000000000000000000000"
          ],
          "data": "0x00000000000000000000000000000000000000000000000000000003b9aca000",
          "blockHash": "0x30125cd078f302e83a3b0047fcee40967c330f3a9ad46cf49f52324b3b158b6b",
          "blockNumber": "0x99df7a",
          "blockTimestamp": "0x696f5130",
          "transactionHash": "0xd6be6604b6b45e14db54c5a67d1ff4a301b7eb346bc0699dbe27ecdd02dec7cc",
          "transactionIndex": "0x32",
          "logIndex": "0x24b",
          "removed": false
        },
        {
          "address": "0x4d3922e731023cd5fba64f495e547d5f1b931128",
          "topics": [
            "0xddf252ad1be2c89b69c2b068fc378daa952ba7f163c4a11628f55a4df523b3ef",
            "0x000000000000000000000000b6c036875b7c36b2863fc40f61f019df0b57ccbd",
            "0x000000000000000000000000e5543f72af9411936497dc7816eb4131bb705d3b"
          ],
          "data": "0x00000000000000000000000000000000000000000000000000000003b9aca000",
          "blockHash": "0x30125cd078f302e83a3b0047fcee40967c330f3a9ad46cf49f52324b3b158b6b",
          "blockNumber": "0x99df7a",
          "blockTimestamp": "0x696f5130",
          "transactionHash": "0xd6be6604b6b45e14db54c5a67d1ff4a301b7eb346bc0699dbe27ecdd02dec7cc",
          "transactionIndex": "0x32",
          "logIndex": "0x24c",
          "removed": false
        },
        {
          "address": "0x4d3922e731023cd5fba64f495e547d5f1b931128",
          "topics": [
            "0xddf252ad1be2c89b69c2b068fc378daa952ba7f163c4a11628f55a4df523b3ef",
            "0x000000000000000000000000e5543f72af9411936497dc7816eb4131bb705d3b",
            "0x000000000000000000000000c223c0634c6312cb3bf23e847f1c21ae9ee9e907"
          ],
          "data": "0x00000000000000000000000000000000000000000000000000000003b9aca000",
          "blockHash": "0x30125cd078f302e83a3b0047fcee40967c330f3a9ad46cf49f52324b3b158b6b",
          "blockNumber": "0x99df7a",
          "blockTimestamp": "0x696f5130",
          "transactionHash": "0xd6be6604b6b45e14db54c5a67d1ff4a301b7eb346bc0699dbe27ecdd02dec7cc",
          "transactionIndex": "0x32",
          "logIndex": "0x24d",
          "removed": false
        },
        {
          "address": "0xe5543f72af9411936497dc7816eb4131bb705d3b",
          "topics": [
            "0x21346abbfb2233733d8597bb727c6716d6062c2edc0b4389bd76af7cdc2da736",
            "0x000000000000000000000000c223c0634c6312cb3bf23e847f1c21ae9ee9e907"
          ],
          "data": "0x00000000000000000000000000000000000000000000000000000003b9aca000",
          "blockHash": "0x30125cd078f302e83a3b0047fcee40967c330f3a9ad46cf49f52324b3b158b6b",
          "blockNumber": "0x99df7a",
          "blockTimestamp": "0x696f5130",
          "transactionHash": "0xd6be6604b6b45e14db54c5a67d1ff4a301b7eb346bc0699dbe27ecdd02dec7cc",
          "transactionIndex": "0x32",
          "logIndex": "0x24e",
          "removed": false
        },
        {
          "address": "0x4d3922e731023cd5fba64f495e547d5f1b931128",
          "topics": [
            "0xddf252ad1be2c89b69c2b068fc378daa952ba7f163c4a11628f55a4df523b3ef",
            "0x000000000000000000000000c223c0634c6312cb3bf23e847f1c21ae9ee9e907",
            "0x000000000000000000000000e21d134daf5159c467d8b2bfc0ece6dc9d406bb1"
          ],
          "data": "0x00000000000000000000000000000000000000000000000000000003b9aca000",
          "blockHash": "0x30125cd078f302e83a3b0047fcee40967c330f3a9ad46cf49f52324b3b158b6b",
          "blockNumber": "0x99df7a",
          "blockTimestamp": "0x696f5130",
          "transactionHash": "0xd6be6604b6b45e14db54c5a67d1ff4a301b7eb346bc0699dbe27ecdd02dec7cc",
          "transactionIndex": "0x32",
          "logIndex": "0x24f",
          "removed": false
        },
        {
          "address": "0xc223c0634c6312cb3bf23e847f1c21ae9ee9e907",
          "topics": [
            "0xeae9cfbc77fdd40ca899f36b608256063b2bc9d8178b0220f7ad513e178d6730",
            "0x000000000000000000000000e21d134daf5159c467d8b2bfc0ece6dc9d406bb1"
          ],
          "data": "0x00000000000000000000000000000000000000000000000000000003b9aca0000000000000000000000000000000000000000000000003635c9adc5dea000000",
          "blockHash": "0x30125cd078f302e83a3b0047fcee40967c330f3a9ad46cf49f52324b3b158b6b",
          "blockNumber": "0x99df7a",
          "blockTimestamp": "0x696f5130",
          "transactionHash": "0xd6be6604b6b45e14db54c5a67d1ff4a301b7eb346bc0699dbe27ecdd02dec7cc",
          "transactionIndex": "0x32",
          "logIndex": "0x250",
          "removed": false
        }
      ],
      "logsBloom": "0x0000000000000000000000000200200000000000400000000000000000000020000000000000000000000000000080000000000002000000000001000000a00004000000000000000000010890000001000000000000000000000000200000000000000002000000000000000000090000000000000000000000001000000000000000000000000000000000000000000000000200480000000000000000000000000000000000000000000004000000000000000800000000000040000000000000000200410000000000000000100000000000800000000040000000002000000a000000000000000000000000001000000000000000000000000000000000",
      "type": "0x2",
      "transactionHash": "0xd6be6604b6b45e14db54c5a67d1ff4a301b7eb346bc0699dbe27ecdd02dec7cc",
      "transactionIndex": "0x32",
      "blockHash": "0x30125cd078f302e83a3b0047fcee40967c330f3a9ad46cf49f52324b3b158b6b",
      "blockNumber": "0x99df7a",
      "gasUsed": "0x2d80d",
      "effectiveGasPrice": "0x5e4ae094",
      "from": "0xe21d134daf5159c467d8b2bfc0ece6dc9d406bb1",
      "to": "0xc223c0634c6312cb3bf23e847f1c21ae9ee9e907",
      "contractAddress": null
    },
    {
      "status": "0x1",
      "cumulativeGasUsed": "0x135b84d",
      "logs": [],
      "logsBloom": "0x00000000000000000000000000000000000000000000000000000000000000000000000000000000000000000000000000000000000000000000000000000000000000000000000000000000000000000000000000000000000000000000000000000000000000000000000000000000000000000000000000000000000000000000000000000000000000000000000000000000000000000000000000000000000000000000000000000000000000000000000000000000000000000000000000000000000000000000000000000000000000000000000000000000000000000000000000000000000000000000000000000000000000000000000000000000",
      "type": "0x2",
      "transactionHash": "0x684be4cc4a05a4a70cc175f67bbb1d7d21eff93c85fcc67b5724861e406035e2",
      "transactionIndex": "0x33",
      "blockHash": "0x30125cd078f302e83a3b0047fcee40967c330f3a9ad46cf49f52324b3b158b6b",
      "blockNumber": "0x99df7a",
      "gasUsed": "0x6751",
      "effectiveGasPrice": "0x5e4ae094",
      "from": "0xe21d134daf5159c467d8b2bfc0ece6dc9d406bb1",
      "to": "0x83cc67c3c80a9335d4a1478e190b7735c75adfa9",
      "contractAddress": null
    },
    {
      "status": "0x1",
      "cumulativeGasUsed": "0x1366ea3",
      "logs": [
        {
          "address": "0x4d3922e731023cd5fba64f495e547d5f1b931128",
          "topics": [
            "0x8c5be1e5ebec7d5bd14f71427d1e84f3dd0314c0f7b2291e5b200ac8c7c3b925",
            "0x000000000000000000000000e21d134daf5159c467d8b2bfc0ece6dc9d406bb1",
            "0x000000000000000000000000c223c0634c6312cb3bf23e847f1c21ae9ee9e907"
          ],
          "data": "0xffffffffffffffffffffffffffffffffffffffffffffffffffffffffffffffff",
          "blockHash": "0x30125cd078f302e83a3b0047fcee40967c330f3a9ad46cf49f52324b3b158b6b",
          "blockNumber": "0x99df7a",
          "blockTimestamp": "0x696f5130",
          "transactionHash": "0xd4c7da39620d8b12ceebb211ff05794a0842356607de6de09b488777e5b88ebb",
          "transactionIndex": "0x34",
          "logIndex": "0x251",
          "removed": false
        }
      ],
      "logsBloom": "0x00000000000000000000000000000000000000000000000000000000000000200000000000000000000000000000000000000000020000000000000000200000040000000000000000000000000000000000000000000000000000000000000000000000000000000000000000000000000000000000000000000000000000000000000000000000000000000000000000000000000000000000000000000000020000000000000000000000000000000000000000000000000000400000000000000000004100000000000000001000000000000000000000400000000000000018000000000000000000000000000000000000000000000000000000000000",
      "type": "0x2",
      "transactionHash": "0xd4c7da39620d8b12ceebb211ff05794a0842356607de6de09b488777e5b88ebb",
      "transactionIndex": "0x34",
      "blockHash": "0x30125cd078f302e83a3b0047fcee40967c330f3a9ad46cf49f52324b3b158b6b",
      "blockNumber": "0x99df7a",
      "gasUsed": "0xb656",
      "effectiveGasPrice": "0x5e4ae094",
      "from": "0xe21d134daf5159c467d8b2bfc0ece6dc9d406bb1",
      "to": "0x4d3922e731023cd5fba64f495e547d5f1b931128",
      "contractAddress": null
    },
    {
      "status": "0x1",
      "cumulativeGasUsed": "0x13a6d1c",
      "logs": [
        {
          "address": "0xc223c0634c6312cb3bf23e847f1c21ae9ee9e907",
          "topics": [
            "0x7585fc9d0cdb1780b00884a72798b76eb3f2b31f93a345611638053279c6a342",
            "0x000000000000000000000000e21d134daf5159c467d8b2bfc0ece6dc9d406bb1"
          ],
          "data": "0x00000000000000000000000000000000000000000000028a857425466f800000",
          "blockHash": "0x30125cd078f302e83a3b0047fcee40967c330f3a9ad46cf49f52324b3b158b6b",
          "blockNumber": "0x99df7a",
          "blockTimestamp": "0x696f5130",
          "transactionHash": "0x56f41d870ac7122b012bee41178375f3db829d75514d521dce6b42c0ff603d3f",
          "transactionIndex": "0x35",
          "logIndex": "0x252",
          "removed": false
        },
        {
          "address": "0x4d3922e731023cd5fba64f495e547d5f1b931128",
          "topics": [
            "0xddf252ad1be2c89b69c2b068fc378daa952ba7f163c4a11628f55a4df523b3ef",
            "0x000000000000000000000000e21d134daf5159c467d8b2bfc0ece6dc9d406bb1",
            "0x000000000000000000000000c223c0634c6312cb3bf23e847f1c21ae9ee9e907"
          ],
          "data": "0x00000000000000000000000000000000000000000000000000000003b9aca000",
          "blockHash": "0x30125cd078f302e83a3b0047fcee40967c330f3a9ad46cf49f52324b3b158b6b",
          "blockNumber": "0x99df7a",
          "blockTimestamp": "0x696f5130",
          "transactionHash": "0x56f41d870ac7122b012bee41178375f3db829d75514d521dce6b42c0ff603d3f",
          "transactionIndex": "0x35",
          "logIndex": "0x253",
          "removed": false
        },
        {
          "address": "0x4d3922e731023cd5fba64f495e547d5f1b931128",
          "topics": [
            "0xddf252ad1be2c89b69c2b068fc378daa952ba7f163c4a11628f55a4df523b3ef",
            "0x000000000000000000000000c223c0634c6312cb3bf23e847f1c21ae9ee9e907",
            "0x000000000000000000000000d0d211ccef07598946bb0df5ecee0bf75caf3ecc"
          ],
          "data": "0x0000000000000000000000000000000000000000000000000000000000000000",
          "blockHash": "0x30125cd078f302e83a3b0047fcee40967c330f3a9ad46cf49f52324b3b158b6b",
          "blockNumber": "0x99df7a",
          "blockTimestamp": "0x696f5130",
          "transactionHash": "0x56f41d870ac7122b012bee41178375f3db829d75514d521dce6b42c0ff603d3f",
          "transactionIndex": "0x35",
          "logIndex": "0x254",
          "removed": false
        },
        {
          "address": "0x4d3922e731023cd5fba64f495e547d5f1b931128",
          "topics": [
            "0xddf252ad1be2c89b69c2b068fc378daa952ba7f163c4a11628f55a4df523b3ef",
            "0x000000000000000000000000c223c0634c6312cb3bf23e847f1c21ae9ee9e907",
            "0x000000000000000000000000e5543f72af9411936497dc7816eb4131bb705d3b"
          ],
          "data": "0x00000000000000000000000000000000000000000000000000000003b9aca000",
          "blockHash": "0x30125cd078f302e83a3b0047fcee40967c330f3a9ad46cf49f52324b3b158b6b",
          "blockNumber": "0x99df7a",
          "blockTimestamp": "0x696f5130",
          "transactionHash": "0x56f41d870ac7122b012bee41178375f3db829d75514d521dce6b42c0ff603d3f",
          "transactionIndex": "0x35",
          "logIndex": "0x255",
          "removed": false
        },
        {
          "address": "0x4d3922e731023cd5fba64f495e547d5f1b931128",
          "topics": [
            "0xddf252ad1be2c89b69c2b068fc378daa952ba7f163c4a11628f55a4df523b3ef",
            "0x000000000000000000000000e5543f72af9411936497dc7816eb4131bb705d3b",
            "0x000000000000000000000000b6c036875b7c36b2863fc40f61f019df0b57ccbd"
          ],
          "data": "0x00000000000000000000000000000000000000000000000000000003b9aca000",
          "blockHash": "0x30125cd078f302e83a3b0047fcee40967c330f3a9ad46cf49f52324b3b158b6b",
          "blockNumber": "0x99df7a",
          "blockTimestamp": "0x696f5130",
          "transactionHash": "0x56f41d870ac7122b012bee41178375f3db829d75514d521dce6b42c0ff603d3f",
          "transactionIndex": "0x35",
          "logIndex": "0x256",
          "removed": false
        },
        {
          "address": "0xb6c036875b7c36b2863fc40f61f019df0b57ccbd",
          "topics": [
            "0xddf252ad1be2c89b69c2b068fc378daa952ba7f163c4a11628f55a4df523b3ef",
            "0x0000000000000000000000000000000000000000000000000000000000000000",
            "0x000000000000000000000000e5543f72af9411936497dc7816eb4131bb705d3b"
          ],
          "data": "0x00000000000000000000000000000000000000000000000000000003b9aca000",
          "blockHash": "0x30125cd078f302e83a3b0047fcee40967c330f3a9ad46cf49f52324b3b158b6b",
          "blockNumber": "0x99df7a",
          "blockTimestamp": "0x696f5130",
          "transactionHash": "0x56f41d870ac7122b012bee41178375f3db829d75514d521dce6b42c0ff603d3f",
          "transactionIndex": "0x35",
          "logIndex": "0x257",
          "removed": false
        },
        {
          "address": "0xe5543f72af9411936497dc7816eb4131bb705d3b",
          "topics": [
            "0xcdef96f1574732629b391b56d3b9d85642f07a450b545e40b0ffa14fcd10389b",
            "0x000000000000000000000000c223c0634c6312cb3bf23e847f1c21ae9ee9e907"
          ],
          "data": "0x00000000000000000000000000000000000000000000000000000003b9aca000",
          "blockHash": "0x30125cd078f302e83a3b0047fcee40967c330f3a9ad46cf49f52324b3b158b6b",
          "blockNumber": "0x99df7a",
          "blockTimestamp": "0x696f5130",
          "transactionHash": "0x56f41d870ac7122b012bee41178375f3db829d75514d521dce6b42c0ff603d3f",
          "transactionIndex": "0x35",
          "logIndex": "0x258",
          "removed": false
        },
        {
          "address": "0x8d952c27ac46b1a0360144c6094ea6159a991a95",
          "topics": [
            "0xddf252ad1be2c89b69c2b068fc378daa952ba7f163c4a11628f55a4df523b3ef",
            "0x000000000000000000000000c223c0634c6312cb3bf23e847f1c21ae9ee9e907",
            "0x000000000000000000000000e21d134daf5159c467d8b2bfc0ece6dc9d406bb1"
          ],
          "data": "0x0000000000000000000000000000000000000000000000008ac7230489e80000",
          "blockHash": "0x30125cd078f302e83a3b0047fcee40967c330f3a9ad46cf49f52324b3b158b6b",
          "blockNumber": "0x99df7a",
          "blockTimestamp": "0x696f5130",
          "transactionHash": "0x56f41d870ac7122b012bee41178375f3db829d75514d521dce6b42c0ff603d3f",
          "transactionIndex": "0x35",
          "logIndex": "0x259",
          "removed": false
        },
        {
          "address": "0xc223c0634c6312cb3bf23e847f1c21ae9ee9e907",
          "topics": [
            "0xb7db1e9a31057a9395f547f02cad74737d02fe6240afed3ab00b84e638c6d246",
            "0x000000000000000000000000e21d134daf5159c467d8b2bfc0ece6dc9d406bb1",
            "0x000000000000000000000000e21d134daf5159c467d8b2bfc0ece6dc9d406bb1",
            "0x0000000000000000000000008d952c27ac46b1a0360144c6094ea6159a991a95"
          ],
          "data": "0x0000000000000000000000000000000000000000000000008ac7230489e80000",
          "blockHash": "0x30125cd078f302e83a3b0047fcee40967c330f3a9ad46cf49f52324b3b158b6b",
          "blockNumber": "0x99df7a",
          "blockTimestamp": "0x696f5130",
          "transactionHash": "0x56f41d870ac7122b012bee41178375f3db829d75514d521dce6b42c0ff603d3f",
          "transactionIndex": "0x35",
          "logIndex": "0x25a",
          "removed": false
        },
        {
          "address": "0xc223c0634c6312cb3bf23e847f1c21ae9ee9e907",
          "topics": [
            "0xfcbc974bf3a532baf2bb229db3c37fd58299b62d2d1db6a855dac5b693bb6ff3",
            "0x000000000000000000000000e21d134daf5159c467d8b2bfc0ece6dc9d406bb1",
            "0x000000000000000000000000e21d134daf5159c467d8b2bfc0ece6dc9d406bb1"
          ],
          "data": "0x0000000000000000000000000000000000000000000003635c9adc5dea0000000000000000000000000000000000000000000000000000d8d726b7177a80000000000000000000000000000000000000000000000000028a857425466f800000",
          "blockHash": "0x30125cd078f302e83a3b0047fcee40967c330f3a9ad46cf49f52324b3b158b6b",
          "blockNumber": "0x99df7a",
          "blockTimestamp": "0x696f5130",
          "transactionHash": "0x56f41d870ac7122b012bee41178375f3db829d75514d521dce6b42c0ff603d3f",
          "transactionIndex": "0x35",
          "logIndex": "0x25b",
          "removed": false
        }
      ],
      "logsBloom": "0x00000000000000000000000102102000040008000000000000000021000000200000080000000000000000000000800000000000020000000000010000008000040000010000000040000108900000010040000000000000000000000000000000000000028000000080000000000900000000000000000000000010000000000000000000000000000040000000000000000002004800000000000000000200000000000000000000000000040000008100000000000000000000400000000000000002204100000000000000001000000000018000040000400000400020000008000000000000010000000000000000000000000000000000000000000000",
      "type": "0x2",
      "transactionHash": "0x56f41d870ac7122b012bee41178375f3db829d75514d521dce6b42c0ff603d3f",
      "transactionIndex": "0x35",
      "blockHash": "0x30125cd078f302e83a3b0047fcee40967c330f3a9ad46cf49f52324b3b158b6b",
      "blockNumber": "0x99df7a",
      "gasUsed": "0x3fe79",
      "effectiveGasPrice": "0x5e4ae094",
      "from": "0xe21d134daf5159c467d8b2bfc0ece6dc9d406bb1",
      "to": "0xc223c0634c6312cb3bf23e847f1c21ae9ee9e907",
      "contractAddress": null
    },
    {
      "status": "0x1",
      "cumulativeGasUsed": "0x13ad46d",
      "logs": [],
      "logsBloom": "0x00000000000000000000000000000000000000000000000000000000000000000000000000000000000000000000000000000000000000000000000000000000000000000000000000000000000000000000000000000000000000000000000000000000000000000000000000000000000000000000000000000000000000000000000000000000000000000000000000000000000000000000000000000000000000000000000000000000000000000000000000000000000000000000000000000000000000000000000000000000000000000000000000000000000000000000000000000000000000000000000000000000000000000000000000000000",
      "type": "0x2",
      "transactionHash": "0x1f9cb61c39f9fcaf5453bc1a474ce40160ff99c8bb0f4b70a5a8bd9534d70ed8",
      "transactionIndex": "0x36",
      "blockHash": "0x30125cd078f302e83a3b0047fcee40967c330f3a9ad46cf49f52324b3b158b6b",
      "blockNumber": "0x99df7a",
      "gasUsed": "0x6751",
      "effectiveGasPrice": "0x5e4ae094",
      "from": "0xe21d134daf5159c467d8b2bfc0ece6dc9d406bb1",
      "to": "0x83cc67c3c80a9335d4a1478e190b7735c75adfa9",
      "contractAddress": null
    }
  ],
  "libraries": [],
  "pending": [],
  "returns": {},
  "timestamp": 1768902962073,
  "chain": 11155111,
  "commit": "28d7f60"
}