{
  "transactions": [
    {
      "hash": "0x2bd49ef2f671b5578ebfb2fa2c6c0ed20b84835cc3e41f32c3da791ed37d15ee",
      "transactionType": "CALL",
      "contractName": null,
      "contractAddress": "0x4d3922e731023cd5fba64f495e547d5f1b931128",
      "function": "mint(address,uint256)",
      "arguments": [
        "0xE21D134Daf5159c467D8B2Bfc0eCe6dc9d406BB1",
        "130000000000"
      ],
      "transaction": {
        "from": "0xe21d134daf5159c467d8b2bfc0ece6dc9d406bb1",
        "to": "0x4d3922e731023cd5fba64f495e547d5f1b931128",
        "gas": "0xb879",
        "value": "0x0",
        "input": "0x40c10f19000000000000000000000000e21d134daf5159c467d8b2bfc0ece6dc9d406bb10000000000000000000000000000000000000000000000000000001e449a9400",
        "nonce": "0x17",
        "chainId": "0xaa36a7"
      },
      "additionalContracts": [],
      "isFixedGasLimit": false
    },
    {
      "hash": "0xf6aff94057369878f2de6198dc4abaf57b942d8661d1c4109b490010e2f3298b",
      "transactionType": "CALL",
      "contractName": null,
      "contractAddress": "0x8d952c27ac46b1a0360144c6094ea6159a991a95",
      "function": "mint(address,uint256)",
      "arguments": [
        "0xE21D134Daf5159c467D8B2Bfc0eCe6dc9d406BB1",
        "10000000000000000000"
      ],
      "transaction": {
        "from": "0xe21d134daf5159c467d8b2bfc0ece6dc9d406bb1",
        "to": "0x8d952c27ac46b1a0360144c6094ea6159a991a95",
        "gas": "0xb89a",
        "value": "0x0",
        "input": "0x40c10f19000000000000000000000000e21d134daf5159c467d8b2bfc0ece6dc9d406bb10000000000000000000000000000000000000000000000008ac7230489e80000",
        "nonce": "0x18",
        "chainId": "0xaa36a7"
      },
      "additionalContracts": [],
      "isFixedGasLimit": false
    },
    {
      "hash": "0x6f06663bee6189e09ef1e3b61e03155bb8a45d9004999f5723d4dd7c5e1b15c9",
      "transactionType": "CALL",
      "contractName": null,
      "contractAddress": "0x83cc67c3c80a9335d4a1478e190b7735c75adfa9",
      "function": "setPrice(int256)",
      "arguments": [
        "200000000000"
      ],
      "transaction": {
        "from": "0xe21d134daf5159c467d8b2bfc0ece6dc9d406bb1",
        "to": "0x83cc67c3c80a9335d4a1478e190b7735c75adfa9",
        "gas": "0x871a",
        "value": "0x0",
        "input": "0xf7a308060000000000000000000000000000000000000000000000000000002e90edd000",
        "nonce": "0x19",
        "chainId": "0xaa36a7"
      },
      "additionalContracts": [],
      "isFixedGasLimit": false
    },
    {
      "hash": "0x96d9fbbc4b1dd7cce18800f664652889269cc21dbb94bc980105d270615a7641",
      "transactionType": "CALL",
      "contractName": null,
      "contractAddress": "0x4d3922e731023cd5fba64f495e547d5f1b931128",
      "function": "approve(address,uint256)",
      "arguments": [
        "0xE5543F72AF9411936497Dc7816eB4131bB705D3B",
        "100000000000"
      ],
      "transaction": {
        "from": "0xe21d134daf5159c467d8b2bfc0ece6dc9d406bb1",
        "to": "0x4d3922e731023cd5fba64f495e547d5f1b931128",
        "gas": "0xfa09",
        "value": "0x0",
        "input": "0x095ea7b3000000000000000000000000e5543f72af9411936497dc7816eb4131bb705d3b000000000000000000000000000000000000000000000000000000174876e800",
        "nonce": "0x1a",
        "chainId": "0xaa36a7"
      },
      "additionalContracts": [],
      "isFixedGasLimit": false
    },
    {
      "hash": "0x3782e2f5cb27de9c170b98dcce2b7feddbe49970740f84af0eaf2f3c55d4850c",
      "transactionType": "CALL",
      "contractName": null,
      "contractAddress": "0xe5543f72af9411936497dc7816eb4131bb705d3b",
      "function": "deposit(uint256,address)",
      "arguments": [
        "100000000000",
        "0xE21D134Daf5159c467D8B2Bfc0eCe6dc9d406BB1"
      ],
      "transaction": {
        "from": "0xe21d134daf5159c467d8b2bfc0ece6dc9d406bb1",
        "to": "0xe5543f72af9411936497dc7816eb4131bb705d3b",
        "gas": "0x245f9",
        "value": "0x0",
        "input": "0x6e553f65000000000000000000000000000000000000000000000000000000174876e800000000000000000000000000e21d134daf5159c467d8b2bfc0ece6dc9d406bb1",
        "nonce": "0x1b",
        "chainId": "0xaa36a7"
      },
      "additionalContracts": [],
      "isFixedGasLimit": false
    },
    {
      "hash": "0x03c41bf9aab8c076841469cad69a23e7623ccebc1677322ceedae6eaf6164e14",
      "transactionType": "CALL",
      "contractName": null,
      "contractAddress": "0x8d952c27ac46b1a0360144c6094ea6159a991a95",
      "function": "approve(address,uint256)",
      "arguments": [
        "0xC223C0634c6312Cb3Bf23e847f1C21Ae9ee9E907",
        "10000000000000000000"
      ],
      "transaction": {
        "from": "0xe21d134daf5159c467d8b2bfc0ece6dc9d406bb1",
        "to": "0x8d952c27ac46b1a0360144c6094ea6159a991a95",
        "gas": "0xfa29",
        "value": "0x0",
        "input": "0x095ea7b3000000000000000000000000c223c0634c6312cb3bf23e847f1c21ae9ee9e9070000000000000000000000000000000000000000000000008ac7230489e80000",
        "nonce": "0x1c",
        "chainId": "0xaa36a7"
      },
      "additionalContracts": [],
      "isFixedGasLimit": false
    },
    {
      "hash": "0xfb7b6bf55bd06b54be3c03fb74a771d2bb255dcb7bac64620b050d1159dcda65",
      "transactionType": "CALL",
      "contractName": null,
      "contractAddress": "0xc223c0634c6312cb3bf23e847f1c21ae9ee9e907",
      "function": "depositCollateral(address,uint256)",
      "arguments": [
        "0x8d952c27aC46B1A0360144c6094Ea6159a991A95",
        "10000000000000000000"
      ],
      "transaction": {
        "from": "0xe21d134daf5159c467d8b2bfc0ece6dc9d406bb1",
        "to": "0xc223c0634c6312cb3bf23e847f1c21ae9ee9e907",
        "gas": "0x45f89",
        "value": "0x0",
        "input": "0xa5d5db0c0000000000000000000000008d952c27ac46b1a0360144c6094ea6159a991a950000000000000000000000000000000000000000000000008ac7230489e80000",
        "nonce": "0x1d",
        "chainId": "0xaa36a7"
      },
      "additionalContracts": [],
      "isFixedGasLimit": false
    },
    {
      "hash": "0xc2cc9f1f227c2a6ce0059488766f50a34c7244c17103235a1a2fc12a3dbd44d8",
      "transactionType": "CALL",
      "contractName": null,
      "contractAddress": "0xc223c0634c6312cb3bf23e847f1c21ae9ee9e907",
      "function": "borrow(uint256)",
      "arguments": [
        "15000000000"
      ],
      "transaction": {
        "from": "0xe21d134daf5159c467d8b2bfc0ece6dc9d406bb1",
        "to": "0xc223c0634c6312cb3bf23e847f1c21ae9ee9e907",
        "gas": "0x3e1f4",
        "value": "0x0",
        "input": "0xc5ebeaec000000000000000000000000000000000000000000000000000000037e11d600",
        "nonce": "0x1e",
        "chainId": "0xaa36a7"
      },
      "additionalContracts": [],
      "isFixedGasLimit": false
    },
    {
      "hash": "0x03117c12bcfd24d3075dbae0574e409fabcb3f6c21070857d3bdab204b63ba18",
      "transactionType": "CALL",
      "contractName": null,
      "contractAddress": "0x83cc67c3c80a9335d4a1478e190b7735c75adfa9",
      "function": "setPrice(int256)",
      "arguments": [
        "120000000000"
      ],
      "transaction": {
        "from": "0xe21d134daf5159c467d8b2bfc0ece6dc9d406bb1",
        "to": "0x83cc67c3c80a9335d4a1478e190b7735c75adfa9",
        "gas": "0x9719",
        "value": "0x0",
        "input": "0xf7a308060000000000000000000000000000000000000000000000000000001bf08eb000",
        "nonce": "0x1f",
        "chainId": "0xaa36a7"
      },
      "additionalContracts": [],
      "isFixedGasLimit": false
    },
    {
      "hash": "0x372e76c5145ec71d3160c45cb091919f8099d8ecfeb3bcd300f825283acb01e5",
      "transactionType": "CALL",
      "contractName": null,
      "contractAddress": "0x4d3922e731023cd5fba64f495e547d5f1b931128",
      "function": "approve(address,uint256)",
      "arguments": [
        "0xC223C0634c6312Cb3Bf23e847f1C21Ae9ee9E907",
        "115792089237316195423570985008687907853269984665640564039457584007913129639935"
      ],
      "transaction": {
        "from": "0xe21d134daf5159c467d8b2bfc0ece6dc9d406bb1",
        "to": "0x4d3922e731023cd5fba64f495e547d5f1b931128",
        "gas": "0x98fa",
        "value": "0x0",
        "input": "0x095ea7b3000000000000000000000000c223c0634c6312cb3bf23e847f1c21ae9ee9e907ffffffffffffffffffffffffffffffffffffffffffffffffffffffffffffffff",
        "nonce": "0x20",
        "chainId": "0xaa36a7"
      },
      "additionalContracts": [],
      "isFixedGasLimit": false
    },
    {
      "hash": "0x7e433e68fd1f12e4de5493637c6a8b4d149e58644487d071c45f878fb58fe0f7",
      "transactionType": "CALL",
      "contractName": null,
      "contractAddress": "0xc223c0634c6312cb3bf23e847f1c21ae9ee9e907",
      "function": "liquidate(address)",
      "arguments": [
        "0xE21D134Daf5159c467D8B2Bfc0eCe6dc9d406BB1"
      ],
      "transaction": {
        "from": "0xe21d134daf5159c467d8b2bfc0ece6dc9d406bb1",
        "to": "0xc223c0634c6312cb3bf23e847f1c21ae9ee9e907",
        "gas": "0x53b0f",
        "value": "0x0",
        "input": "0x2f865568000000000000000000000000e21d134daf5159c467d8b2bfc0ece6dc9d406bb1",
        "nonce": "0x21",
        "chainId": "0xaa36a7"
      },
      "additionalContracts": [],
      "isFixedGasLimit": false
    },
    {
      "hash": "0x3e3dce8296d185d3150947a11b5598ecdcfc4f6e2296ad48c43aa08925dd3d75",
      "transactionType": "CALL",
      "contractName": null,
      "contractAddress": "0x83cc67c3c80a9335d4a1478e190b7735c75adfa9",
      "function": "setPrice(int256)",
      "arguments": [
        "200000000000"
      ],
      "transaction": {
        "from": "0xe21d134daf5159c467d8b2bfc0ece6dc9d406bb1",
        "to": "0x83cc67c3c80a9335d4a1478e190b7735c75adfa9",
        "gas": "0x9719",
        "value": "0x0",
        "input": "0xf7a308060000000000000000000000000000000000000000000000000000002e90edd000",
        "nonce": "0x22",
        "chainId": "0xaa36a7"
      },
      "additionalContracts": [],
      "isFixedGasLimit": false
    }
  ],
  "receipts": [
    {
      "status": "0x1",
      "cumulativeGasUsed": "0xf9f828",
      "logs": [
        {
          "address": "0x4d3922e731023cd5fba64f495e547d5f1b931128",
          "topics": [
            "0xddf252ad1be2c89b69c2b068fc378daa952ba7f163c4a11628f55a4df523b3ef",
            "0x0000000000000000000000000000000000000000000000000000000000000000",
            "0x000000000000000000000000e21d134daf5159c467d8b2bfc0ece6dc9d406bb1"
          ],
          "data": "0x0000000000000000000000000000000000000000000000000000001e449a9400",
          "blockHash": "0xf91134f8124218d6a9628e949d931d0e3016626812a7055fea8565c9bea34f30",
          "blockNumber": "0x99df7f",
          "blockTimestamp": "0x696f516c",
          "transactionHash": "0x3e3dce8296d185d3150947a11b5598ecdcfc4f6e2296ad48c43aa08925dd3d75",
          "transactionIndex": "0x25",
          "logIndex": "0x203",
          "removed": false
        }
      ],
      "logsBloom": "0x00000000000000000000000000000000000000000000000000000000000000200000000000000000000000000000000000000000020000000000000000000000000000000000000000000008000000000000000000000000000000000000000000000000020000000000000000000800000000000000000000000010000000000000000000000000000000000000000000000000000000000000000000000000000000000000000000000000000000000000000000000000000000000000000000000002000100000000000000001000000000000000000000400000000020000008000000000000000000000000000000000000000000000000000000000000",
      "type": "0x2",
      "transactionHash": "0x3e3dce8296d185d3150947a11b5598ecdcfc4f6e2296ad48c43aa08925dd3d75",
      "transactionIndex": "0x25",
      "blockHash": "0xf91134f8124218d6a9628e949d931d0e3016626812a7055fea8565c9bea34f30",
      "blockNumber": "0x99df7f",
      "gasUsed": "0x858f",
      "effectiveGasPrice": "0x69843534",
      "from": "0xe21d134daf5159c467d8b2bfc0ece6dc9d406bb1",
      "to": "0x4d3922e731023cd5fba64f495e547d5f1b931128",
      "contractAddress": null
    },
    {
      "status": "0x1",
      "cumulativeGasUsed": "0xfa7dcf",
      "logs": [
        {
          "address": "0x8d952c27ac46b1a0360144c6094ea6159a991a95",
          "topics": [
            "0xddf252ad1be2c89b69c2b068fc378daa952ba7f163c4a11628f55a4df523b3ef",
            "0x0000000000000000000000000000000000000000000000000000000000000000",
            "0x000000000000000000000000e21d134daf5159c467d8b2bfc0ece6dc9d406bb1"
          ],
          "data": "0x0000000000000000000000000000000000000000000000008ac7230489e80000",
          "blockHash": "0xf91134f8124218d6a9628e949d931d0e3016626812a7055fea8565c9bea34f30",
          "blockNumber": "0x99df7f",
          "blockTimestamp": "0x696f516c",
          "transactionHash": "0x96d9fbbc4b1dd7cce18800f664652889269cc21dbb94bc980105d270615a7641",
          "transactionIndex": "0x26",
          "logIndex": "0x204",
          "removed": false
        }
      ],
      "logsBloom": "0x00000000000000000000000000000000040000000000000000000020000000000000000000000000000000000000000000000000020000000000000000000000000000000000000040000008000000000000000000000000000000000000000000000000020000000000000000000800000000000000000000000010000000000000000000000000000000000000000000000000000000000000000000000000000000000000000000000000000000000000000000000000000000000000000000000002000100000000000000000000000000000000000000000000000020000008000000000000000000000000000000000000000000000000000000000000",
      "type": "0x2",
      "transactionHash": "0x96d9fbbc4b1dd7cce18800f664652889269cc21dbb94bc980105d270615a7641",
      "transactionIndex": "0x26",
      "blockHash": "0xf91134f8124218d6a9628e949d931d0e3016626812a7055fea8565c9bea34f30",
      "blockNumber": "0x99df7f",
      "gasUsed": "0x85a7",
      "effectiveGasPrice": "0x69843534",
      "from": "0xe21d134daf5159c467d8b2bfc0ece6dc9d406bb1",
      "to": "0x8d952c27ac46b1a0360144c6094ea6159a991a95",
      "contractAddress": null
    },
    {
      "status": "0x1",
      "cumulativeGasUsed": "0xfada30",
      "logs": [],
      "logsBloom": "0x00000000000000000000000000000000000000000000000000000000000000000000000000000000000000000000000000000000000000000000000000000000000000000000000000000000000000000000000000000000000000000000000000000000000000000000000000000000000000000000000000000000000000000000000000000000000000000000000000000000000000000000000000000000000000000000000000000000000000000000000000000000000000000000000000000000000000000000000000000000000000000000000000000000000000000000000000000000000000000000000000000000000000000000000000000000",
      "type": "0x2",
      "transactionHash": "0x03117c12bcfd24d3075dbae0574e409fabcb3f6c21070857d3bdab204b63ba18",
      "transactionIndex": "0x27",
      "blockHash": "0xf91134f8124218d6a9628e949d931d0e3016626812a7055fea8565c9bea34f30",
      "blockNumber": "0x99df7f",
      "gasUsed": "0x5c61",
      "effectiveGasPrice": "0x69843534",
      "from": "0xe21d134daf5159c467d8b2bfc0ece6dc9d406bb1",
      "to": "0x83cc67c3c80a9335d4a1478e190b7735c75adfa9",
      "contractAddress": null
    },
    {
      "status": "0x1",
      "cumulativeGasUsed": "0xfb8f36",
      "logs": [
        {
          "address": "0x4d3922e731023cd5fba64f495e547d5f1b931128",
          "topics": [
            "0x8c5be1e5ebec7d5bd14f71427d1e84f3dd0314c0f7b2291e5b200ac8c7c3b925",
            "0x000000000000000000000000e21d134daf5159c467d8b2bfc0ece6dc9d406bb1",
            "0x000000000000000000000000e5543f72af9411936497dc7816eb4131bb705d3b"
          ],
          "data": "0x000000000000000000000000000000000000000000000000000000174876e800",
          "blockHash": "0xf91134f8124218d6a9628e949d931d0e3016626812a7055fea8565c9bea34f30",
          "blockNumber": "0x99df7f",
          "blockTimestamp": "0x696f516c",
          "transactionHash": "0x7e433e68fd1f12e4de5493637c6a8b4d149e58644487d071c45f878fb58fe0f7",
          "transactionIndex": "0x28",
          "logIndex": "0x205",
          "removed": false
        }
      ],
      "logsBloom": "0x00000000000000000000000000002000000000000000000000000000000000200000000000000000000000000000000000000000020000000000010000200000000000000000000000000100000000000000000000000000000000000000000000000000000000000000000000000000000000000000000000000000000000000000000000000000000000000000000000000000000000000000000000000000020000000000000000000000000000000000000000000000000000000000000000000000000100000000000000001000000000000000000000400000000000000018000000000000000000000000000000000000000000000000000000000000",
      "type": "0x2",
      "transactionHash": "0x7e433e68fd1f12e4de5493637c6a8b4d149e58644487d071c45f878fb58fe0f7",
      "transactionIndex": "0x28",
      "blockHash": "0xf91134f8124218d6a9628e949d931d0e3016626812a7055fea8565c9bea34f30",
      "blockNumber": "0x99df7f",
      "gasUsed": "0xb506",
      "effectiveGasPrice": "0x69843534",
      "from": "0xe21d134daf5159c467d8b2bfc0ece6dc9d406bb1",
      "to": "0x4d3922e731023cd5fba64f495e547d5f1b931128",
      "contractAddress": null
    },
    {
      "status": "0x1",
      "cumulativeGasUsed": "0xfd348d",
      "logs": [
        {
          "address": "0x4d3922e731023cd5fba64f495e547d5f1b931128",
          "topics": [
            "0xddf252ad1be2c89b69c2b068fc378daa952ba7f163c4a11628f55a4df523b3ef",
            "0x000000000000000000000000e21d134daf5159c467d8b2bfc0ece6dc9d406bb1",
            "0x000000000000000000000000e5543f72af9411936497dc7816eb4131bb705d3b"
          ],
          "data": "0x000000000000000000000000000000000000000000000000000000174876e800",
          "blockHash": "0xf91134f8124218d6a9628e949d931d0e3016626812a7055fea8565c9bea34f30",
          "blockNumber": "0x99df7f",
          "blockTimestamp": "0x696f516c",
          "transactionHash": "0xc2cc9f1f227c2a6ce0059488766f50a34c7244c17103235a1a2fc12a3dbd44d8",
          "transactionIndex": "0x29",
          "logIndex": "0x206",
          "removed": false
        },
        {
          "address": "0xe5543f72af9411936497dc7816eb4131bb705d3b",
          "topics": [
            "0xddf252ad1be2c89b69c2b068fc378daa952ba7f163c4a11628f55a4df523b3ef",
            "0x0000000000000000000000000000000000000000000000000000000000000000",
            "0x000000000000000000000000e21d134daf5159c467d8b2bfc0ece6dc9d406bb1"
          ],
          "data": "0x00000000000000000000000000000000000000000000000000000014c9d7e16d",
          "blockHash": "0xf91134f8124218d6a9628e949d931d0e3016626812a7055fea8565c9bea34f30",
          "blockNumber": "0x99df7f",
          "blockTimestamp": "0x696f516c",
          "transactionHash": "0xc2cc9f1f227c2a6ce0059488766f50a34c7244c17103235a1a2fc12a3dbd44d8",
          "transactionIndex": "0x29",
          "logIndex": "0x207",
          "removed": false
        },
        {
          "address": "0xe5543f72af9411936497dc7816eb4131bb705d3b",
          "topics": [
            "0xdcbc1c05240f31ff3ad067ef1ee35ce4997762752e3a095284754544f4c709d7",
            "0x000000000000000000000000e21d134daf5159c467d8b2bfc0ece6dc9d406bb1",
            "0x000000000000000000000000e21d134daf5159c467d8b2bfc0ece6dc9d406bb1"
          ],
          "data": "0x000000000000000000000000000000000000000000000000000000174876e80000000000000000000000000000000000000000000000000000000014c9d7e16d",
          "blockHash": "0xf91134f8124218d6a9628e949d931d0e3016626812a7055fea8565c9bea34f30",
          "blockNumber": "0x99df7f",
          "blockTimestamp": "0x696f516c",
          "transactionHash": "0xc2cc9f1f227c2a6ce0059488766f50a34c7244c17103235a1a2fc12a3dbd44d8",
          "transactionIndex": "0x29",
          "logIndex": "0x208",
          "removed": false
        },
        {
          "address": "0x4d3922e731023cd5fba64f495e547d5f1b931128",
          "topics": [
            "0xddf252ad1be2c89b69c2b068fc378daa952ba7f163c4a11628f55a4df523b3ef",
            "0x000000000000000000000000e5543f72af9411936497dc7816eb4131bb705d3b",
            "0x000000000000000000000000b6c036875b7c36b2863fc40f61f019df0b57ccbd"
          ],
          "data": "0x000000000000000000000000000000000000000000000000000000174876e800",
          "blockHash": "0xf91134f8124218d6a9628e949d931d0e3016626812a7055fea8565c9bea34f30",
          "blockNumber": "0x99df7f",
          "blockTimestamp": "0x696f516c",
          "transactionHash": "0xc2cc9f1f227c2a6ce0059488766f50a34c7244c17103235a1a2fc12a3dbd44d8",
          "transactionIndex": "0x29",
          "logIndex": "0x209",
          "removed": false
        },
        {
          "address": "0xb6c036875b7c36b2863fc40f61f019df0b57ccbd",
          "topics": [
            "0xddf252ad1be2c89b69c2b068fc378daa952ba7f163c4a11628f55a4df523b3ef",
            "0x0000000000000000000000000000000000000000000000000000000000000000",
            "0x000000000000000000000000e5543f72af9411936497dc7816eb4131bb705d3b"
          ],
          "data": "0x000000000000000000000000000000000000000000000000000000174876e800",
          "blockHash": "0xf91134f8124218d6a9628e949d931d0e3016626812a7055fea8565c9bea34f30",
          "blockNumber": "0x99df7f",
          "blockTimestamp": "0x696f516c",
          "transactionHash": "0xc2cc9f1f227c2a6ce0059488766f50a34c7244c17103235a1a2fc12a3dbd44d8",
          "transactionIndex": "0x29",
          "logIndex": "0x20a",
          "removed": false
        }
      ],
      "logsBloom": "0x00000000000000000000000002002000000000000000000000000000000000200000000000000000000000000000800000000000020000000000010000008000000000400000000000000108900000010000000000000000000000000000000000000000020000000000000000000800000000000004000000000010000000000000000000000000000000000000000000000002004800000000000000000000000000000000000000000000000000000000000000000000000000000000000000000002000100000000000000001000000000000008000000400000000020000008000000000000000000000000000000000000000000000000000000000000",
      "type": "0x2",
      "transactionHash": "0xc2cc9f1f227c2a6ce0059488766f50a34c7244c17103235a1a2fc12a3dbd44d8",
      "transactionIndex": "0x29",
      "blockHash": "0xf91134f8124218d6a9628e949d931d0e3016626812a7055fea8565c9bea34f30",
      "blockNumber": "0x99df7f",
      "gasUsed": "0x1a557",
      "effectiveGasPrice": "0x69843534",
      "from": "0xe21d134daf5159c467d8b2bfc0ece6dc9d406bb1",
      "to": "0xe5543f72af9411936497dc7816eb4131bb705d3b",
      "contractAddress": null
    },
    {
      "status": "0x1",
      "cumulativeGasUsed": "0xfde9ab",
      "logs": [
        {
          "address": "0x8d952c27ac46b1a0360144c6094ea6159a991a95",
          "topics": [
            "0x8c5be1e5ebec7d5bd14f71427d1e84f3dd0314c0f7b2291e5b200ac8c7c3b925",
            "0x000000000000000000000000e21d134daf5159c467d8b2bfc0ece6dc9d406bb1",
            "0x000000000000000000000000c223c0634c6312cb3bf23e847f1c21ae9ee9e907"
          ],
          "data": "0x0000000000000000000000000000000000000000000000008ac7230489e80000",
          "blockHash": "0xf91134f8124218d6a9628e949d931d0e3016626812a7055fea8565c9bea34f30",
          "blockNumber": "0x99df7f",
          "blockTimestamp": "0x696f516c",
          "transactionHash": "0x2bd49ef2f671b5578ebfb2fa2c6c0ed20b84835cc3e41f32c3da791ed37d15ee",
          "transactionIndex": "0x2a",
          "logIndex": "0x20b",
          "removed": false
        }
      ],
      "logsBloom": "0x00000000000000000000000000000000040000000000000000000020000000000000000000000000000000000000000000000000020000000000000000200000040000000000000040000000000000000000000000000000000000000000000000000000000000000000000000000000000000000000000000000000000000000000000000000000000000000000000000000000000000000000000000000000020000000000000000000000000000000000000000000000000000400000000000000000004100000000000000000000000000000000000000000000000000000018000000000000000000000000000000000000000000000000000000000000",
      "type": "0x2",
      "transactionHash": "0x2bd49ef2f671b5578ebfb2fa2c6c0ed20b84835cc3e41f32c3da791ed37d15ee",
      "transactionIndex": "0x2a",
      "blockHash": "0xf91134f8124218d6a9628e949d931d0e3016626812a7055fea8565c9bea34f30",
      "blockNumber": "0x99df7f",
      "gasUsed": "0xb51e",
      "effectiveGasPrice": "0x69843534",
      "from": "0xe21d134daf5159c467d8b2bfc0ece6dc9d406bb1",
      "to": "0x8d952c27ac46b1a0360144c6094ea6159a991a95",
      "contractAddress": null
    },
    {
      "status": "0x1",
      "cumulativeGasUsed": "0x1011432",
      "logs": [
        {
          "address": "0xc223c0634c6312cb3bf23e847f1c21ae9ee9e907",
          "topics": [
            "0x297b8b9d1b565330ee94c748c7508234ac0aae34fd6a2fa474c0793fa6d192f7"
          ],
          "data": "0x0000000000000000000000000000000000000000000000000de0b6b3a76400000000000000000000000000000000000000000000000000000de0b6ffd8b73d4500000000000000000000000000000000000000000000000000000000696f516c",
          "blockHash": "0xf91134f8124218d6a9628e949d931d0e3016626812a7055fea8565c9bea34f30",
          "blockNumber": "0x99df7f",
          "blockTimestamp": "0x696f516c",
          "transactionHash": "0xf6aff94057369878f2de6198dc4abaf57b942d8661d1c4109b490010e2f3298b",
          "transactionIndex": "0x2b",
          "logIndex": "0x20c",
          "removed": false
        },
        {
          "address": "0x8d952c27ac46b1a0360144c6094ea6159a991a95",
          "topics": [
            "0xddf252ad1be2c89b69c2b068fc378daa952ba7f163c4a11628f55a4df523b3ef",
            "0x000000000000000000000000e21d134daf5159c467d8b2bfc0ece6dc9d406bb1",
            "0x000000000000000000000000c223c0634c6312cb3bf23e847f1c21ae9ee9e907"
          ],
          "data": "0x0000000000000000000000000000000000000000000000008ac7230489e80000",
          "blockHash": "0xf91134f8124218d6a9628e949d931d0e3016626812a7055fea8565c9bea34f30",
          "blockNumber": "0x99df7f",
          "blockTimestamp": "0x696f516c",
          "transactionHash": "0xf6aff94057369878f2de6198dc4abaf57b942d8661d1c4109b490010e2f3298b",
          "transactionIndex": "0x2b",
          "logIndex": "0x20d",
          "removed": false
        },
        {
          "address": "0xc223c0634c6312cb3bf23e847f1c21ae9ee9e907",
          "topics": [
            "0xf1c0dd7e9b98bbff859029005ef89b127af049cd18df1a8d79f0b7e019911e56",
            "0x000000000000000000000000e21d134daf5159c467d8b2bfc0ece6dc9d406bb1",
            "0x0000000000000000000000008d952c27ac46b1a0360144c6094ea6159a991a95"
          ],
          "data": "0x0000000000000000000000000000000000000000000000008ac7230489e80000",
          "blockHash": "0xf91134f8124218d6a9628e949d931d0e3016626812a7055fea8565c9bea34f30",
          "blockNumber": "0x99df7f",
          "blockTimestamp": "0x696f516c",
          "transactionHash": "0xf6aff94057369878f2de6198dc4abaf57b942d8661d1c4109b490010e2f3298b",
          "transactionIndex": "0x2b",
          "logIndex": "0x20e",
          "removed": false
        }
      ],
      "logsBloom": "0x00000000000000000000000000000000040000000000000000000020000000000000000000000000000000000000000000000000020000000000000000000000040000000000000040000008000000000000000000000000000000000000000000000000000000000840000000000100000000000000000000000810000000000000000000000000000000000000000000000000000000000000000000000000000000000000000000000000040000008100000000000000000000400000000000000002004100000000000000000000010000408000000080000000400000000008000000000000000000000000000000000000000000000000000000000000",
      "type": "0x2",
      "transactionHash": "0xf6aff94057369878f2de6198dc4abaf57b942d8661d1c4109b490010e2f3298b",
      "transactionIndex": "0x2b",
      "blockHash": "0xf91134f8124218d6a9628e949d931d0e3016626812a7055fea8565c9bea34f30",
      "blockNumber": "0x99df7f",
      "gasUsed": "0x32a87",
      "effectiveGasPrice": "0x69843534",
      "from": "0xe21d134daf5159c467d8b2bfc0ece6dc9d406bb1",
      "to": "0xc223c0634c6312cb3bf23e847f1c21ae9ee9e907",
      "contractAddress": null
    },
    {
      "status": "0x1",
      "cumulativeGasUsed": "0x103bbd3",
      "logs": [
        {
          "address": "0xb6c036875b7c36b2863fc40f61f019df0b57ccbd",
          "topics": [
            "0xddf252ad1be2c89b69c2b068fc378daa952ba7f163c4a11628f55a4df523b3ef",
            "0x000000000000000000000000e5543f72af9411936497dc7816eb4131bb705d3b",
            "0x0000000000000000000000000000000000000000000000000000000000000000"
          ],
          "data": "0x000000000000000000000000000000000000000000000000000000037e11d600",
          "blockHash": "0xf91134f8124218d6a9628e949d931d0e3016626812a7055fea8565c9bea34f30",
          "blockNumber": "0x99df7f",
          "blockTimestamp": "0x696f516c",
          "transactionHash": "0x6f06663bee6189e09ef1e3b61e03155bb8a45d9004999f5723d4dd7c5e1b15c9",
          "transactionIndex": "0x2c",
          "logIndex": "0x20f",
          "removed": false
        },
        {
          "address": "0x4d3922e731023cd5fba64f495e547d5f1b931128",
          "topics": [
            "0xddf252ad1be2c89b69c2b068fc378daa952ba7f163c4a11628f55a4df523b3ef",
            "0x000000000000000000000000b6c036875b7c36b2863fc40f61f019df0b57ccbd",
            "0x000000000000000000000000e5543f72af9411936497dc7816eb4131bb705d3b"
          ],
          "data": "0x000000000000000000000000000000000000000000000000000000037e11d600",
          "blockHash": "0xf91134f8124218d6a9628e949d931d0e3016626812a7055fea8565c9bea34f30",
          "blockNumber": "0x99df7f",
          "blockTimestamp": "0x696f516c",
          "transactionHash": "0x6f06663bee6189e09ef1e3b61e03155bb8a45d9004999f5723d4dd7c5e1b15c9",
          "transactionIndex": "0x2c",
          "logIndex": "0x210",
          "removed": false
        },
        {
          "address": "0x4d3922e731023cd5fba64f495e547d5f1b931128",
          "topics": [
            "0xddf252ad1be2c89b69c2b068fc378daa952ba7f163c4a11628f55a4df523b3ef",
            "0x000000000000000000000000e5543f72af9411936497dc7816eb4131bb705d3b",
            "0x000000000000000000000000c223c0634c6312cb3bf23e847f1c21ae9ee9e907"
          ],
          "data": "0x000000000000000000000000000000000000000000000000000000037e11d600",
          "blockHash": "0xf91134f8124218d6a9628e949d931d0e3016626812a7055fea8565c9bea34f30",
          "blockNumber": "0x99df7f",
          "blockTimestamp": "0x696f516c",
          "transactionHash": "0x6f06663bee6189e09ef1e3b61e03155bb8a45d9004999f5723d4dd7c5e1b15c9",
          "transactionIndex": "0x2c",
          "logIndex": "0x211",
          "removed": false
        },
        {
          "address": "0xe5543f72af9411936497dc7816eb4131bb705d3b",
          "topics": [
            "0x21346abbfb2233733d8597bb727c6716d6062c2edc0b4389bd76af7cdc2da736",
            "0x000000000000000000000000c223c0634c6312cb3bf23e847f1c21ae9ee9e907"
          ],
          "data": "0x000000000000000000000000000000000000000000000000000000037e11d600",
          "blockHash": "0xf91134f8124218d6a9628e949d931d0e3016626812a7055fea8565c9bea34f30",
          "blockNumber": "0x99df7f",
          "blockTimestamp": "0x696f516c",
          "transactionHash": "0x6f06663bee6189e09ef1e3b61e03155bb8a45d9004999f5723d4dd7c5e1b15c9",
          "transactionIndex": "0x2c",
          "logIndex": "0x212",
          "removed": false
        },
        {
          "address": "0x4d3922e731023cd5fba64f495e547d5f1b931128",
          "topics": [
            "0xddf252ad1be2c89b69c2b068fc378daa952ba7f163c4a11628f55a4df523b3ef",
            "0x000000000000000000000000c223c0634c6312cb3bf23e847f1c21ae9ee9e907",
            "0x000000000000000000000000e21d134daf5159c467d8b2bfc0ece6dc9d406bb1"
          ],
          "data": "0x000000000000000000000000000000000000000000000000000000037e11d600",
          "blockHash": "0xf91134f8124218d6a9628e949d931d0e3016626812a7055fea8565c9bea34f30",
          "blockNumber": "0x99df7f",
          "blockTimestamp": "0x696f516c",
          "transactionHash": "0x6f06663bee6189e09ef1e3b61e03155bb8a45d9004999f5723d4dd7c5e1b15c9",
          "transactionIndex": "0x2c",
          "logIndex": "0x213",
          "removed": false
        },
        {
          "address": "0xc223c0634c6312cb3bf23e847f1c21ae9ee9e907",
          "topics": [
            "0xeae9cfbc77fdd40ca899f36b608256063b2bc9d8178b0220f7ad513e178d6730",
            "0x000000000000000000000000e21d134daf5159c467d8b2bfc0ece6dc9d406bb1"
          ],
          "data": "0x000000000000000000000000000000000000000000000000000000037e11d60000000000000000000000000000000000000000000000032d26d12e980b600000",
          "blockHash": "0xf91134f8124218d6a9628e949d931d0e3016626812a7055fea8565c9bea34f30",
          "blockNumber": "0x99df7f",
          "blockTimestamp": "0x696f516c",
          "transactionHash": "0x6f06663bee6189e09ef1e3b61e03155bb8a45d9004999f5723d4dd7c5e1b15c9",
          "transactionIndex": "0x2c",
          "logIndex": "0x214",
          "removed": false
        }
      ],
      "logsBloom": "0x0000000000000000000000000200200000000000400000000000000000000020000000000000000000000000000080000000000002000000000001000000a00004000000000000000000010890000001000000000000000000000000200000000000000002000000000000000000090000000000000000000000001000000000000000000000000000000000000000000000000200480000000000000000000000000000000000000000000004000000000000000800000000000040000000000000000200410000000000000000100000000000800000000040000000002000000a000000000000000000000000001000000000000000000000000000000000",
      "type": "0x2",
      "transactionHash": "0x6f06663bee6189e09ef1e3b61e03155bb8a45d9004999f5723d4dd7c5e1b15c9",
      "transactionIndex": "0x2c",
      "blockHash": "0xf91134f8124218d6a9628e949d931d0e3016626812a7055fea8565c9bea34f30",
      "blockNumber": "0x99df7f",
      "gasUsed": "0x2a7a1",
      "effectiveGasPrice": "0x69843534",
      "from": "0xe21d134daf5159c467d8b2bfc0ece6dc9d406bb1",
      "to": "0xc223c0634c6312cb3bf23e847f1c21ae9ee9e907",
      "contractAddress": null
    },
    {
      "status": "0x1",
      "cumulativeGasUsed": "0x1042324",
      "logs": [],
      "logsBloom": "0x00000000000000000000000000000000000000000000000000000000000000000000000000000000000000000000000000000000000000000000000000000000000000000000000000000000000000000000000000000000000000000000000000000000000000000000000000000000000000000000000000000000000000000000000000000000000000000000000000000000000000000000000000000000000000000000000000000000000000000000000000000000000000000000000000000000000000000000000000000000000000000000000000000000000000000000000000000000000000000000000000000000000000000000000000000000",
      "type": "0x2",
      "transactionHash": "0x3782e2f5cb27de9c170b98dcce2b7feddbe49970740f84af0eaf2f3c55d4850c",
      "transactionIndex": "0x2d",
      "blockHash": "0xf91134f8124218d6a9628e949d931d0e3016626812a7055fea8565c9bea34f30",
      "blockNumber": "0x99df7f",
      "gasUsed": "0x6751",
      "effectiveGasPrice": "0x69843534",
      "from": "0xe21d134daf5159c467d8b2bfc0ece6dc9d406bb1",
      "to": "0x83cc67c3c80a9335d4a1478e190b7735c75adfa9",
      "contractAddress": null
    },
    {
      "status": "0x1",
      "cumulativeGasUsed": "0x1048bbe",
      "logs": [
        {
          "address": "0x4d3922e731023cd5fba64f495e547d5f1b931128",
          "topics": [
            "0x8c5be1e5ebec7d5bd14f71427d1e84f3dd0314c0f7b2291e5b200ac8c7c3b925",
            "0x000000000000000000000000e21d134daf5159c467d8b2bfc0ece6dc9d406bb1",
            "0x000000000000000000000000c223c0634c6312cb3bf23e847f1c21ae9ee9e907"
          ],
          "data": "0xffffffffffffffffffffffffffffffffffffffffffffffffffffffffffffffff",
          "blockHash": "0xf91134f8124218d6a9628e949d931d0e3016626812a7055fea8565c9bea34f30",
          "blockNumber": "0x99df7f",
          "blockTimestamp": "0x696f516c",
          "transactionHash": "0x372e76c5145ec71d3160c45cb091919f8099d8ecfeb3bcd300f825283acb01e5",
          "transactionIndex": "0x2e",
          "logIndex": "0x215",
          "removed": false
        }
      ],
      "logsBloom": "0x00000000000000000000000000000000000000000000000000000000000000200000000000000000000000000000000000000000020000000000000000200000040000000000000000000000000000000000000000000000000000000000000000000000000000000000000000000000000000000000000000000000000000000000000000000000000000000000000000000000000000000000000000000000020000000000000000000000000000000000000000000000000000400000000000000000004100000000000000001000000000000000000000400000000000000018000000000000000000000000000000000000000000000000000000000000",
      "type": "0x2",
      "transactionHash": "0x372e76c5145ec71d3160c45cb091919f8099d8ecfeb3bcd300f825283acb01e5",
      "transactionIndex": "0x2e",
      "blockHash": "0xf91134f8124218d6a9628e949d931d0e3016626812a7055fea8565c9bea34f30",
      "blockNumber": "0x99df7f",
      "gasUsed": "0x689a",
      "effectiveGasPrice": "0x69843534",
      "from": "0xe21d134daf5159c467d8b2bfc0ece6dc9d406bb1",
      "to": "0x4d3922e731023cd5fba64f495e547d5f1b931128",
      "contractAddress": null
    },
    {
      "status": "0x1",
      "cumulativeGasUsed": "0x1081f57",
      "logs": [
        {
          "address": "0xc223c0634c6312cb3bf23e847f1c21ae9ee9e907",
          "topics": [
            "0x7585fc9d0cdb1780b00884a72798b76eb3f2b31f93a345611638053279c6a342",
            "0x000000000000000000000000e21d134daf5159c467d8b2bfc0ece6dc9d406bb1"
          ],
          "data": "0x0000000000000000000000000000000000000000000000a2a15d09519be00000",
          "blockHash": "0xf91134f8124218d6a9628e949d931d0e3016626812a7055fea8565c9bea34f30",
          "blockNumber": "0x99df7f",
          "blockTimestamp": "0x696f516c",
          "transactionHash": "0xfb7b6bf55bd06b54be3c03fb74a771d2bb255dcb7bac64620b050d1159dcda65",
          "transactionIndex": "0x2f",
          "logIndex": "0x216",
          "removed": false
        },
        {
          "address": "0x4d3922e731023cd5fba64f495e547d5f1b931128",
          "topics": [
            "0xddf252ad1be2c89b69c2b068fc378daa952ba7f163c4a11628f55a4df523b3ef",
            "0x000000000000000000000000e21d134daf5159c467d8b2bfc0ece6dc9d406bb1",
            "0x000000000000000000000000c223c0634c6312cb3bf23e847f1c21ae9ee9e907"
          ],
          "data": "0x000000000000000000000000000000000000000000000000000000037e11d600",
          "blockHash": "0xf91134f8124218d6a9628e949d931d0e3016626812a7055fea8565c9bea34f30",
          "blockNumber": "0x99df7f",
          "blockTimestamp": "0x696f516c",
          "transactionHash": "0xfb7b6bf55bd06b54be3c03fb74a771d2bb255dcb7bac64620b050d1159dcda65",
          "transactionIndex": "0x2f",
          "logIndex": "0x217",
          "removed": false
        },
        {
          "address": "0x4d3922e731023cd5fba64f495e547d5f1b931128",
          "topics": [
            "0xddf252ad1be2c89b69c2b068fc378daa952ba7f163c4a11628f55a4df523b3ef",
            "0x000000000000000000000000c223c0634c6312cb3bf23e847f1c21ae9ee9e907",
            "0x000000000000000000000000d0d211ccef07598946bb0df5ecee0bf75caf3ecc"
          ],
          "data": "0x0000000000000000000000000000000000000000000000000000000000000000",
          "blockHash": "0xf91134f8124218d6a9628e949d931d0e3016626812a7055fea8565c9bea34f30",
          "blockNumber": "0x99df7f",
          "blockTimestamp": "0x696f516c",
          "transactionHash": "0xfb7b6bf55bd06b54be3c03fb74a771d2bb255dcb7bac64620b050d1159dcda65",
          "transactionIndex": "0x2f",
          "logIndex": "0x218",
          "removed": false
        },
        {
          "address": "0x4d3922e731023cd5fba64f495e547d5f1b931128",
          "topics": [
            "0xddf252ad1be2c89b69c2b068fc378daa952ba7f163c4a11628f55a4df523b3ef",
            "0x000000000000000000000000c223c0634c6312cb3bf23e847f1c21ae9ee9e907",
            "0x000000000000000000000000e5543f72af9411936497dc7816eb4131bb705d3b"
          ],
          "data": "0x000000000000000000000000000000000000000000000000000000037e11d600",
          "blockHash": "0xf91134f8124218d6a9628e949d931d0e3016626812a7055fea8565c9bea34f30",
          "blockNumber": "0x99df7f",
          "blockTimestamp": "0x696f516c",
          "transactionHash": "0xfb7b6bf55bd06b54be3c03fb74a771d2bb255dcb7bac64620b050d1159dcda65",
          "transactionIndex": "0x2f",
          "logIndex": "0x219",
          "removed": false
        },
        {
          "address": "0x4d3922e731023cd5fba64f495e547d5f1b931128",
          "topics": [
            "0xddf252ad1be2c89b69c2b068fc378daa952ba7f163c4a11628f55a4df523b3ef",
            "0x000000000000000000000000e5543f72af9411936497dc7816eb4131bb705d3b",
            "0x000000000000000000000000b6c036875b7c36b2863fc40f61f019df0b57ccbd"
          ],
          "data": "0x000000000000000000000000000000000000000000000000000000037e11d600",
          "blockHash": "0xf91134f8124218d6a9628e949d931d0e3016626812a7055fea8565c9bea34f30",
          "blockNumber": "0x99df7f",
          "blockTimestamp": "0x696f516c",
          "transactionHash": "0xfb7b6bf55bd06b54be3c03fb74a771d2bb255dcb7bac64620b050d1159dcda65",
          "transactionIndex": "0x2f",
          "logIndex": "0x21a",
          "removed": false
        },
        {
          "address": "0xb6c036875b7c36b2863fc40f61f019df0b57ccbd",
          "topics": [
            "0xddf252ad1be2c89b69c2b068fc378daa952ba7f163c4a11628f55a4df523b3ef",
            "0x0000000000000000000000000000000000000000000000000000000000000000",
            "0x000000000000000000000000e5543f72af9411936497dc7816eb4131bb705d3b"
          ],
          "data": "0x000000000000000000000000000000000000000000000000000000037e11d600",
          "blockHash": "0xf91134f8124218d6a9628e949d931d0e3016626812a7055fea8565c9bea34f30",
          "blockNumber": "0x99df7f",
          "blockTimestamp": "0x696f516c",
          "transactionHash": "0xfb7b6bf55bd06b54be3c03fb74a771d2bb255dcb7bac64620b050d1159dcda65",
          "transactionIndex": "0x2f",
          "logIndex": "0x21b",
          "removed": false
        },
        {
          "address": "0xe5543f72af9411936497dc7816eb4131bb705d3b",
          "topics": [
            "0xcdef96f1574732629b391b56d3b9d85642f07a450b545e40b0ffa14fcd10389b",
            "0x000000000000000000000000c223c0634c6312cb3bf23e847f1c21ae9ee9e907"
          ],
          "data": "0x000000000000000000000000000000000000000000000000000000037e11d600",
          "blockHash": "0xf91134f8124218d6a9628e949d931d0e3016626812a7055fea8565c9bea34f30",
          "blockNumber": "0x99df7f",
          "blockTimestamp": "0x696f516c",
          "transactionHash": "0xfb7b6bf55bd06b54be3c03fb74a771d2bb255dcb7bac64620b050d1159dcda65",
          "transactionIndex": "0x2f",
          "logIndex": "0x21c",
          "removed": false
        },
        {
          "address": "0x8d952c27ac46b1a0360144c6094ea6159a991a95",
          "topics": [
            "0xddf252ad1be2c89b69c2b068fc378daa952ba7f163c4a11628f55a4df523b3ef",
            "0x000000000000000000000000c223c0634c6312cb3bf23e847f1c21ae9ee9e907",
            "0x000000000000000000000000e21d134daf5159c467d8b2bfc0ece6dc9d406bb1"
          ],
          "data": "0x0000000000000000000000000000000000000000000000008ac7230489e80000",
          "blockHash": "0xf91134f8124218d6a9628e949d931d0e3016626812a7055fea8565c9bea34f30",
          "blockNumber": "0x99df7f",
          "blockTimestamp": "0x696f516c",
          "transactionHash": "0xfb7b6bf55bd06b54be3c03fb74a771d2bb255dcb7bac64620b050d1159dcda65",
          "transactionIndex": "0x2f",
          "logIndex": "0x21d",
          "removed": false
        },
        {
          "address": "0xc223c0634c6312cb3bf23e847f1c21ae9ee9e907",
          "topics": [
            "0xb7db1e9a31057a9395f547f02cad74737d02fe6240afed3ab00b84e638c6d246",
            "0x000000000000000000000000e21d134daf5159c467d8b2bfc0ece6dc9d406bb1",
            "0x000000000000000000000000e21d134daf5159c467d8b2bfc0ece6dc9d406bb1",
            "0x0000000000000000000000008d952c27ac46b1a0360144c6094ea6159a991a95"
          ],
          "data": "0x0000000000000000000000000000000000000000000000008ac7230489e80000",
          "blockHash": "0xf91134f8124218d6a9628e949d931d0e3016626812a7055fea8565c9bea34f30",
          "blockNumber": "0x99df7f",
          "blockTimestamp": "0x696f516c",
          "transactionHash": "0xfb7b6bf55bd06b54be3c03fb74a771d2bb255dcb7bac64620b050d1159dcda65",
          "transactionIndex": "0x2f",
          "logIndex": "0x21e",
          "removed": false
        },
        {
          "address": "0xc223c0634c6312cb3bf23e847f1c21ae9ee9e907",
          "topics": [
            "0xfcbc974bf3a532baf2bb229db3c37fd58299b62d2d1db6a855dac5b693bb6ff3",
            "0x000000000000000000000000e21d134daf5159c467d8b2bfc0ece6dc9d406bb1",
            "0x000000000000000000000000e21d134daf5159c467d8b2bfc0ece6dc9d406bb1"
          ],
          "data": "0x00000000000000000000000000000000000000000000032d26d12e980b60000000000000000000000000000000000000000000000000028a857425466f8000000000000000000000000000000000000000000000000000a2a15d09519be00000",
          "blockHash": "0xf91134f8124218d6a9628e949d931d0e3016626812a7055fea8565c9bea34f30",
          "blockNumber": "0x99df7f",
          "blockTimestamp": "0x696f516c",
          "transactionHash": "0xfb7b6bf55bd06b54be3c03fb74a771d2bb255dcb7bac64620b050d1159dcda65",
          "transactionIndex": "0x2f",
          "logIndex": "0x21f",
          "removed": false
        }
      ],
      "logsBloom": "0x00000000000000000000000102102000040008000000000000000021000000200000080000000000000000000000800000000000020000000000010000008000040000010000000040000108900000010040000000000000000000000000000000000000028000000080000000000900000000000000000000000010000000000000000000000000000040000000000000000002004800000000000000000200000000000000000000000000040000008100000000000000000000400000000000000002204100000000000000001000000000018000040000400000400020000008000000000000010000000000000000000000000000000000000000000000",
      "type": "0x2",
      "transactionHash": "0xfb7b6bf55bd06b54be3c03fb74a771d2bb255dcb7bac64620b050d1159dcda65",
      "transactionIndex": "0x2f",
      "blockHash": "0xf91134f8124218d6a9628e949d931d0e3016626812a7055fea8565c9bea34f30",
      "blockNumber": "0x99df7f",
      "gasUsed": "0x39399",
      "effectiveGasPrice": "0x69843534",
      "from": "0xe21d134daf5159c467d8b2bfc0ece6dc9d406bb1",
      "to": "0xc223c0634c6312cb3bf23e847f1c21ae9ee9e907",
      "contractAddress": null
    },
    {
      "status": "0x1",
      "cumulativeGasUsed": "0x10886a8",
      "logs": [],
      "logsBloom": "0x00000000000000000000000000000000000000000000000000000000000000000000000000000000000000000000000000000000000000000000000000000000000000000000000000000000000000000000000000000000000000000000000000000000000000000000000000000000000000000000000000000000000000000000000000000000000000000000000000000000000000000000000000000000000000000000000000000000000000000000000000000000000000000000000000000000000000000000000000000000000000000000000000000000000000000000000000000000000000000000000000000000000000000000000000000000",
      "type": "0x2",
      "transactionHash": "0x03c41bf9aab8c076841469cad69a23e7623ccebc1677322ceedae6eaf6164e14",
      "transactionIndex": "0x30",
      "blockHash": "0xf91134f8124218d6a9628e949d931d0e3016626812a7055fea8565c9bea34f30",
      "blockNumber": "0x99df7f",
      "gasUsed": "0x6751",
      "effectiveGasPrice": "0x69843534",
      "from": "0xe21d134daf5159c467d8b2bfc0ece6dc9d406bb1",
      "to": "0x83cc67c3c80a9335d4a1478e190b7735c75adfa9",
      "contractAddress": null
    }
  ],
  "libraries": [],
  "pending": [],
  "returns": {},
  "timestamp": 1768903022216,
  "chain": 11155111,
  "commit": "28d7f60"
}