{
  "transactions": [
    {
      "hash": "0x3fb47c92058a84790cb15246419b042a2dd036c450be576707730a6951184308",
      "transactionType": "CALL",
      "contractName": null,
      "contractAddress": "0x4d3922e731023cd5fba64f495e547d5f1b931128",
      "function": "mint(address,uint256)",
      "arguments": [
        "0xE21D134Daf5159c467D8B2Bfc0eCe6dc9d406BB1",
        "110000000000"
      ],
      "transaction": {
        "from": "0xe21d134daf5159c467d8b2bfc0ece6dc9d406bb1",
        "to": "0x4d3922e731023cd5fba64f495e547d5f1b931128",
        "gas": "0x17100",
        "value": "0x0",
        "input": "0x40c10f19000000000000000000000000e21d134daf5159c467d8b2bfc0ece6dc9d406bb1000000000000000000000000000000000000000000000000000000199c82cc00",
        "nonce": "0x0",
        "chainId": "0xaa36a7"
      },
      "additionalContracts": [],
      "isFixedGasLimit": false
    },
    {
      "hash": "0xfc6368210e1ca59f8a9b8fa2605860fb65ef21394006c473209b201fec3f128c",
      "transactionType": "CALL",
      "contractName": null,
      "contractAddress": "0x8d952c27ac46b1a0360144c6094ea6159a991a95",
      "function": "mint(address,uint256)",
      "arguments": [
        "0xE21D134Daf5159c467D8B2Bfc0eCe6dc9d406BB1",
        "10000000000000000000"
      ],
      "transaction": {
        "from": "0xe21d134daf5159c467d8b2bfc0ece6dc9d406bb1",
        "to": "0x8d952c27ac46b1a0360144c6094ea6159a991a95",
        "gas": "0x17121",
        "value": "0x0",
        "input": "0x40c10f19000000000000000000000000e21d134daf5159c467d8b2bfc0ece6dc9d406bb10000000000000000000000000000000000000000000000008ac7230489e80000",
        "nonce": "0x1",
        "chainId": "0xaa36a7"
      },
      "additionalContracts": [],
      "isFixedGasLimit": false
    },
    {
      "hash": "0x19452f77705c4ca591c19fa9cbacecfa28a6812b07d359691e096f58c08072d3",
      "transactionType": "CALL",
      "contractName": null,
      "contractAddress": "0x4d3922e731023cd5fba64f495e547d5f1b931128",
      "function": "approve(address,uint256)",
      "arguments": [
        "0xE5543F72AF9411936497Dc7816eB4131bB705D3B",
        "100000000000"
      ],
      "transaction": {
        "from": "0xe21d134daf5159c467d8b2bfc0ece6dc9d406bb1",
        "to": "0x4d3922e731023cd5fba64f495e547d5f1b931128",
        "gas": "0xfa09",
        "value": "0x0",
        "input": "0x095ea7b3000000000000000000000000e5543f72af9411936497dc7816eb4131bb705d3b000000000000000000000000000000000000000000000000000000174876e800",
        "nonce": "0x2",
        "chainId": "0xaa36a7"
      },
      "additionalContracts": [],
      "isFixedGasLimit": false
    },
    {
      "hash": "0x58004123172e2ada757b116226d9f205ca53d7616215c1aeaee7747294e02216",
      "transactionType": "CALL",
      "contractName": null,
      "contractAddress": "0xe5543f72af9411936497dc7816eb4131bb705d3b",
      "function": "deposit(uint256,address)",
      "arguments": [
        "100000000000",
        "0xE21D134Daf5159c467D8B2Bfc0eCe6dc9d406BB1"
      ],
      "transaction": {
        "from": "0xe21d134daf5159c467d8b2bfc0ece6dc9d406bb1",
        "to": "0xe5543f72af9411936497dc7816eb4131bb705d3b",
        "gas": "0x3e548",
        "value": "0x0",
        "input": "0x6e553f65000000000000000000000000000000000000000000000000000000174876e800000000000000000000000000e21d134daf5159c467d8b2bfc0ece6dc9d406bb1",
        "nonce": "0x3",
        "chainId": "0xaa36a7"
      },
      "additionalContracts": [],
      "isFixedGasLimit": false
    },
    {
      "hash": "0x0359a9fa81dd457793bf3ecad31b99767f8c118908da8dde3349516ab099f1ac",
      "transactionType": "CALL",
      "contractName": null,
      "contractAddress": "0x8d952c27ac46b1a0360144c6094ea6159a991a95",
      "function": "approve(address,uint256)",
      "arguments": [
        "0xC223C0634c6312Cb3Bf23e847f1C21Ae9ee9E907",
        "10000000000000000000"
      ],
      "transaction": {
        "from": "0xe21d134daf5159c467d8b2bfc0ece6dc9d406bb1",
        "to": "0x8d952c27ac46b1a0360144c6094ea6159a991a95",
        "gas": "0xfa29",
        "value": "0x0",
        "input": "0x095ea7b3000000000000000000000000c223c0634c6312cb3bf23e847f1c21ae9ee9e9070000000000000000000000000000000000000000000000008ac7230489e80000",
        "nonce": "0x4",
        "chainId": "0xaa36a7"
      },
      "additionalContracts": [],
      "isFixedGasLimit": false
    },
    {
      "hash": "0xdccb85e1b6a6950f9c61e0e3db1251a4855c0f35f5b94a976e9ba6ecd224d7b5",
      "transactionType": "CALL",
      "contractName": null,
      "contractAddress": "0xc223c0634c6312cb3bf23e847f1c21ae9ee9e907",
      "function": "depositCollateral(address,uint256)",
      "arguments": [
        "0x8d952c27aC46B1A0360144c6094Ea6159a991A95",
        "10000000000000000000"
      ],
      "transaction": {
        "from": "0xe21d134daf5159c467d8b2bfc0ece6dc9d406bb1",
        "to": "0xc223c0634c6312cb3bf23e847f1c21ae9ee9e907",
        "gas": "0x3d792",
        "value": "0x0",
        "input": "0xa5d5db0c0000000000000000000000008d952c27ac46b1a0360144c6094ea6159a991a950000000000000000000000000000000000000000000000008ac7230489e80000",
        "nonce": "0x5",
        "chainId": "0xaa36a7"
      },
      "additionalContracts": [],
      "isFixedGasLimit": false
    },
    {
      "hash": "0x37a6dda85b0d5cea0689c6cf730a119b8b7bf769abda0e2ccca96a5eb4e5304f",
      "transactionType": "CALL",
      "contractName": null,
      "contractAddress": "0xc223c0634c6312cb3bf23e847f1c21ae9ee9e907",
      "function": "borrow(uint256)",
      "arguments": [
        "10000000000"
      ],
      "transaction": {
        "from": "0xe21d134daf5159c467d8b2bfc0ece6dc9d406bb1",
        "to": "0xc223c0634c6312cb3bf23e847f1c21ae9ee9e907",
        "gas": "0x49a75",
        "value": "0x0",
        "input": "0xc5ebeaec00000000000000000000000000000000000000000000000000000002540be400",
        "nonce": "0x6",
        "chainId": "0xaa36a7"
      },
      "additionalContracts": [],
      "isFixedGasLimit": false
    },
    {
      "hash": "0x9b87a3f3b216585bafcb9461fd22c0c1d5ee6fa867755e677a2a11017027b964",
      "transactionType": "CALL",
      "contractName": null,
      "contractAddress": "0x4d3922e731023cd5fba64f495e547d5f1b931128",
      "function": "approve(address,uint256)",
      "arguments": [
        "0xC223C0634c6312Cb3Bf23e847f1C21Ae9ee9E907",
        "10000000000"
      ],
      "transaction": {
        "from": "0xe21d134daf5159c467d8b2bfc0ece6dc9d406bb1",
        "to": "0x4d3922e731023cd5fba64f495e547d5f1b931128",
        "gas": "0xfa09",
        "value": "0x0",
        "input": "0x095ea7b3000000000000000000000000c223c0634c6312cb3bf23e847f1c21ae9ee9e90700000000000000000000000000000000000000000000000000000002540be400",
        "nonce": "0x7",
        "chainId": "0xaa36a7"
      },
      "additionalContracts": [],
      "isFixedGasLimit": false
    },
    {
      "hash": "0xbf919dd36bc54a3223c0603696eab44f770629c3c9cdccb80f96d67c7af15ad0",
      "transactionType": "CALL",
      "contractName": null,
      "contractAddress": "0xc223c0634c6312cb3bf23e847f1c21ae9ee9e907",
      "function": "repay(uint256)",
      "arguments": [
        "10000000000"
      ],
      "transaction": {
        "from": "0xe21d134daf5159c467d8b2bfc0ece6dc9d406bb1",
        "to": "0xc223c0634c6312cb3bf23e847f1c21ae9ee9e907",
        "gas": "0x32273",
        "value": "0x0",
        "input": "0x371fd8e600000000000000000000000000000000000000000000000000000002540be400",
        "nonce": "0x8",
        "chainId": "0xaa36a7"
      },
      "additionalContracts": [],
      "isFixedGasLimit": false
    },
    {
      "hash": "0x8c0257b54be920d08ea9513537a0f474c96b7f04776855527ada0252b6c323c8",
      "transactionType": "CALL",
      "contractName": null,
      "contractAddress": "0xc223c0634c6312cb3bf23e847f1c21ae9ee9e907",
      "function": "withdrawCollateral(address,uint256)",
      "arguments": [
        "0x8d952c27aC46B1A0360144c6094Ea6159a991A95",
        "10000000000000000000"
      ],
      "transaction": {
        "from": "0xe21d134daf5159c467d8b2bfc0ece6dc9d406bb1",
        "to": "0xc223c0634c6312cb3bf23e847f1c21ae9ee9e907",
        "gas": "0x1c688",
        "value": "0x0",
        "input": "0x350c35e90000000000000000000000008d952c27ac46b1a0360144c6094ea6159a991a950000000000000000000000000000000000000000000000008ac7230489e80000",
        "nonce": "0x9",
        "chainId": "0xaa36a7"
      },
      "additionalContracts": [],
      "isFixedGasLimit": false
    },
    {
      "hash": "0x41385a01ff8150ac47292a6a46d890d5758c5ec14e0808c3cc76ab0d2f071a88",
      "transactionType": "CALL",
      "contractName": null,
      "contractAddress": "0xe5543f72af9411936497dc7816eb4131bb705d3b",
      "function": "redeem(uint256,address,address)",
      "arguments": [
        "100000000000",
        "0xE21D134Daf5159c467D8B2Bfc0eCe6dc9d406BB1",
        "0xE21D134Daf5159c467D8B2Bfc0eCe6dc9d406BB1"
      ],
      "transaction": {
        "from": "0xe21d134daf5159c467d8b2bfc0ece6dc9d406bb1",
        "to": "0xe5543f72af9411936497dc7816eb4131bb705d3b",
        "gas": "0x20ce6",
        "value": "0x0",
        "input": "0xba087652000000000000000000000000000000000000000000000000000000174876e800000000000000000000000000e21d134daf5159c467d8b2bfc0ece6dc9d406bb1000000000000000000000000e21d134daf5159c467d8b2bfc0ece6dc9d406bb1",
        "nonce": "0xa",
        "chainId": "0xaa36a7"
      },
      "additionalContracts": [],
      "isFixedGasLimit": false
    }
  ],
  "receipts": [
    {
      "status": "0x1",
      "cumulativeGasUsed": "0xedf3a9",
      "logs": [
        {
          "address": "0x4d3922e731023cd5fba64f495e547d5f1b931128",
          "topics": [
            "0xddf252ad1be2c89b69c2b068fc378daa952ba7f163c4a11628f55a4df523b3ef",
            "0x0000000000000000000000000000000000000000000000000000000000000000",
            "0x000000000000000000000000e21d134daf5159c467d8b2bfc0ece6dc9d406bb1"
          ],
          "data": "0x000000000000000000000000000000000000000000000000000000199c82cc00",
          "blockHash": "0xa1f057a584571fb95d3791aa4939a8566d526e8e4a751b525a8a71dff0b1beb8",
          "blockNumber": "0x99df53",
          "blockTimestamp": "0x696f4f38",
          "transactionHash": "0x3fb47c92058a84790cb15246419b042a2dd036c450be576707730a6951184308",
          "transactionIndex": "0x25",
          "logIndex": "0x1c9",
          "removed": false
        }
      ],
      "logsBloom": "0x00000000000000000000000000000000000000000000000000000000000000200000000000000000000000000000000000000000020000000000000000000000000000000000000000000008000000000000000000000000000000000000000000000000020000000000000000000800000000000000000000000010000000000000000000000000000000000000000000000000000000000000000000000000000000000000000000000000000000000000000000000000000000000000000000000002000100000000000000001000000000000000000000400000000020000008000000000000000000000000000000000000000000000000000000000000",
      "type": "0x2",
      "transactionHash": "0x3fb47c92058a84790cb15246419b042a2dd036c450be576707730a6951184308",
      "transactionIndex": "0x25",
      "blockHash": "0xa1f057a584571fb95d3791aa4939a8566d526e8e4a751b525a8a71dff0b1beb8",
      "blockNumber": "0x99df53",
      "gasUsed": "0x10b27",
      "effectiveGasPrice": "0x703af3cd",
      "from": "0xe21d134daf5159c467d8b2bfc0ece6dc9d406bb1",
      "to": "0x4d3922e731023cd5fba64f495e547d5f1b931128",
      "contractAddress": null
    },
    {
      "status": "0x1",
      "cumulativeGasUsed": "0xeefee8",
      "logs": [
        {
          "address": "0x8d952c27ac46b1a0360144c6094ea6159a991a95",
          "topics": [
            "0xddf252ad1be2c89b69c2b068fc378daa952ba7f163c4a11628f55a4df523b3ef",
            "0x0000000000000000000000000000000000000000000000000000000000000000",
            "0x000000000000000000000000e21d134daf5159c467d8b2bfc0ece6dc9d406bb1"
          ],
          "data": "0x0000000000000000000000000000000000000000000000008ac7230489e80000",
          "blockHash": "0xa1f057a584571fb95d3791aa4939a8566d526e8e4a751b525a8a71dff0b1beb8",
          "blockNumber": "0x99df53",
          "blockTimestamp": "0x696f4f38",
          "transactionHash": "0xfc6368210e1ca59f8a9b8fa2605860fb65ef21394006c473209b201fec3f128c",
          "transactionIndex": "0x26",
          "logIndex": "0x1ca",
          "removed": false
        }
      ],
      "logsBloom": "0x00000000000000000000000000000000040000000000000000000020000000000000000000000000000000000000000000000000020000000000000000000000000000000000000040000008000000000000000000000000000000000000000000000000020000000000000000000800000000000000000000000010000000000000000000000000000000000000000000000000000000000000000000000000000000000000000000000000000000000000000000000000000000000000000000000002000100000000000000000000000000000000000000000000000020000008000000000000000000000000000000000000000000000000000000000000",
      "type": "0x2",
      "transactionHash": "0xfc6368210e1ca59f8a9b8fa2605860fb65ef21394006c473209b201fec3f128c",
      "transactionIndex": "0x26",
      "blockHash": "0xa1f057a584571fb95d3791aa4939a8566d526e8e4a751b525a8a71dff0b1beb8",
      "blockNumber": "0x99df53",
      "gasUsed": "0x10b3f",
      "effectiveGasPrice": "0x703af3cd",
      "from": "0xe21d134daf5159c467d8b2bfc0ece6dc9d406bb1",
      "to": "0x8d952c27ac46b1a0360144c6094ea6159a991a95",
      "contractAddress": null
    },
    {
      "status": "0x1",
      "cumulativeGasUsed": "0xefb3ee",
      "logs": [
        {
          "address": "0x4d3922e731023cd5fba64f495e547d5f1b931128",
          "topics": [
            "0x8c5be1e5ebec7d5bd14f71427d1e84f3dd0314c0f7b2291e5b200ac8c7c3b925",
            "0x000000000000000000000000e21d134daf5159c467d8b2bfc0ece6dc9d406bb1",
            "0x000000000000000000000000e5543f72af9411936497dc7816eb4131bb705d3b"
          ],
          "data": "0x000000000000000000000000000000000000000000000000000000174876e800",
          "blockHash": "0xa1f057a584571fb95d3791aa4939a8566d526e8e4a751b525a8a71dff0b1beb8",
          "blockNumber": "0x99df53",
          "blockTimestamp": "0x696f4f38",
          "transactionHash": "0x9b87a3f3b216585bafcb9461fd22c0c1d5ee6fa867755e677a2a11017027b964",
          "transactionIndex": "0x27",
          "logIndex": "0x1cb",
          "removed": false
        }
      ],
      "logsBloom": "0x00000000000000000000000000002000000000000000000000000000000000200000000000000000000000000000000000000000020000000000010000200000000000000000000000000100000000000000000000000000000000000000000000000000000000000000000000000000000000000000000000000000000000000000000000000000000000000000000000000000000000000000000000000000020000000000000000000000000000000000000000000000000000000000000000000000000100000000000000001000000000000000000000400000000000000018000000000000000000000000000000000000000000000000000000000000",
      "type": "0x2",
      "transactionHash": "0x9b87a3f3b216585bafcb9461fd22c0c1d5ee6fa867755e677a2a11017027b964",
      "transactionIndex": "0x27",
      "blockHash": "0xa1f057a584571fb95d3791aa4939a8566d526e8e4a751b525a8a71dff0b1beb8",
      "blockNumber": "0x99df53",
      "gasUsed": "0xb506",
      "effectiveGasPrice": "0x703af3cd",
      "from": "0xe21d134daf5159c467d8b2bfc0ece6dc9d406bb1",
      "to": "0x4d3922e731023cd5fba64f495e547d5f1b931128",
      "contractAddress": null
    },
    {
      "status": "0x1",
      "cumulativeGasUsed": "0xf285f2",
      "logs": [
        {
          "address": "0x4d3922e731023cd5fba64f495e547d5f1b931128",
          "topics": [
            "0xddf252ad1be2c89b69c2b068fc378daa952ba7f163c4a11628f55a4df523b3ef",
            "0x000000000000000000000000e21d134daf5159c467d8b2bfc0ece6dc9d406bb1",
            "0x000000000000000000000000e5543f72af9411936497dc7816eb4131bb705d3b"
          ],
          "data": "0x000000000000000000000000000000000000000000000000000000174876e800",
          "blockHash": "0xa1f057a584571fb95d3791aa4939a8566d526e8e4a751b525a8a71dff0b1beb8",
          "blockNumber": "0x99df53",
          "blockTimestamp": "0x696f4f38",
          "transactionHash": "0x41385a01ff8150ac47292a6a46d890d5758c5ec14e0808c3cc76ab0d2f071a88",
          "transactionIndex": "0x28",
          "logIndex": "0x1cc",
          "removed": false
        },
        {
          "address": "0xe5543f72af9411936497dc7816eb4131bb705d3b",
          "topics": [
            "0xddf252ad1be2c89b69c2b068fc378daa952ba7f163c4a11628f55a4df523b3ef",
            "0x0000000000000000000000000000000000000000000000000000000000000000",
            "0x000000000000000000000000e21d134daf5159c467d8b2bfc0ece6dc9d406bb1"
          ],
          "data": "0x000000000000000000000000000000000000000000000000000000174876e800",
          "blockHash": "0xa1f057a584571fb95d3791aa4939a8566d526e8e4a751b525a8a71dff0b1beb8",
          "blockNumber": "0x99df53",
          "blockTimestamp": "0x696f4f38",
          "transactionHash": "0x41385a01ff8150ac47292a6a46d890d5758c5ec14e0808c3cc76ab0d2f071a88",
          "transactionIndex": "0x28",
          "logIndex": "0x1cd",
          "removed": false
        },
        {
          "address": "0xe5543f72af9411936497dc7816eb4131bb705d3b",
          "topics": [
            "0xdcbc1c05240f31ff3ad067ef1ee35ce4997762752e3a095284754544f4c709d7",
            "0x000000000000000000000000e21d134daf5159c467d8b2bfc0ece6dc9d406bb1",
            "0x000000000000000000000000e21d134daf5159c467d8b2bfc0ece6dc9d406bb1"
          ],
          "data": "0x000000000000000000000000000000000000000000000000000000174876e800000000000000000000000000000000000000000000000000000000174876e800",
          "blockHash": "0xa1f057a584571fb95d3791aa4939a8566d526e8e4a751b525a8a71dff0b1beb8",
          "blockNumber": "0x99df53",
          "blockTimestamp": "0x696f4f38",
          "transactionHash": "0x41385a01ff8150ac47292a6a46d890d5758c5ec14e0808c3cc76ab0d2f071a88",
          "transactionIndex": "0x28",
          "logIndex": "0x1ce",
          "removed": false
        },
        {
          "address": "0x4d3922e731023cd5fba64f495e547d5f1b931128",
          "topics": [
            "0xddf252ad1be2c89b69c2b068fc378daa952ba7f163c4a11628f55a4df523b3ef",
            "0x000000000000000000000000e5543f72af9411936497dc7816eb4131bb705d3b",
            "0x000000000000000000000000b6c036875b7c36b2863fc40f61f019df0b57ccbd"
          ],
          "data": "0x000000000000000000000000000000000000000000000000000000174876e800",
          "blockHash": "0xa1f057a584571fb95d3791aa4939a8566d526e8e4a751b525a8a71dff0b1beb8",
          "blockNumber": "0x99df53",
          "blockTimestamp": "0x696f4f38",
          "transactionHash": "0x41385a01ff8150ac47292a6a46d890d5758c5ec14e0808c3cc76ab0d2f071a88",
          "transactionIndex": "0x28",
          "logIndex": "0x1cf",
          "removed": false
        },
        {
          "address": "0xb6c036875b7c36b2863fc40f61f019df0b57ccbd",
          "topics": [
            "0xddf252ad1be2c89b69c2b068fc378daa952ba7f163c4a11628f55a4df523b3ef",
            "0x0000000000000000000000000000000000000000000000000000000000000000",
            "0x000000000000000000000000e5543f72af9411936497dc7816eb4131bb705d3b"
          ],
          "data": "0x000000000000000000000000000000000000000000000000000000174876e800",
          "blockHash": "0xa1f057a584571fb95d3791aa4939a8566d526e8e4a751b525a8a71dff0b1beb8",
          "blockNumber": "0x99df53",
          "blockTimestamp": "0x696f4f38",
          "transactionHash": "0x41385a01ff8150ac47292a6a46d890d5758c5ec14e0808c3cc76ab0d2f071a88",
          "transactionIndex": "0x28",
          "logIndex": "0x1d0",
          "removed": false
        }
      ],
      "logsBloom": "0x00000000000000000000000002002000000000000000000000000000000000200000000000000000000000000000800000000000020000000000010000008000000000400000000000000108900000010000000000000000000000000000000000000000020000000000000000000800000000000004000000000010000000000000000000000000000000000000000000000002004800000000000000000000000000000000000000000000000000000000000000000000000000000000000000000002000100000000000000001000000000000008000000400000000020000008000000000000000000000000000000000000000000000000000000000000",
      "type": "0x2",
      "transactionHash": "0x41385a01ff8150ac47292a6a46d890d5758c5ec14e0808c3cc76ab0d2f071a88",
      "transactionIndex": "0x28",
      "blockHash": "0xa1f057a584571fb95d3791aa4939a8566d526e8e4a751b525a8a71dff0b1beb8",
      "blockNumber": "0x99df53",
      "gasUsed": "0x2d204",
      "effectiveGasPrice": "0x703af3cd",
      "from": "0xe21d134daf5159c467d8b2bfc0ece6dc9d406bb1",
      "to": "0xe5543f72af9411936497dc7816eb4131bb705d3b",
      "contractAddress": null
    },
    {
      "status": "0x1",
      "cumulativeGasUsed": "0xf33b10",
      "logs": [
        {
          "address": "0x8d952c27ac46b1a0360144c6094ea6159a991a95",
          "topics": [
            "0x8c5be1e5ebec7d5bd14f71427d1e84f3dd0314c0f7b2291e5b200ac8c7c3b925",
            "0x000000000000000000000000e21d134daf5159c467d8b2bfc0ece6dc9d406bb1",
            "0x000000000000000000000000c223c0634c6312cb3bf23e847f1c21ae9ee9e907"
          ],
          "data": "0x0000000000000000000000000000000000000000000000008ac7230489e80000",
          "blockHash": "0xa1f057a584571fb95d3791aa4939a8566d526e8e4a751b525a8a71dff0b1beb8",
          "blockNumber": "0x99df53",
          "blockTimestamp": "0x696f4f38",
          "transactionHash": "0x0359a9fa81dd457793bf3ecad31b99767f8c118908da8dde3349516ab099f1ac",
          "transactionIndex": "0x29",
          "logIndex": "0x1d1",
          "removed": false
        }
      ],
      "logsBloom": "0x00000000000000000000000000000000040000000000000000000020000000000000000000000000000000000000000000000000020000000000000000200000040000000000000040000000000000000000000000000000000000000000000000000000000000000000000000000000000000000000000000000000000000000000000000000000000000000000000000000000000000000000000000000000020000000000000000000000000000000000000000000000000000400000000000000000004100000000000000000000000000000000000000000000000000000018000000000000000000000000000000000000000000000000000000000000",
      "type": "0x2",
      "transactionHash": "0x0359a9fa81dd457793bf3ecad31b99767f8c118908da8dde3349516ab099f1ac",
      "transactionIndex": "0x29",
      "blockHash": "0xa1f057a584571fb95d3791aa4939a8566d526e8e4a751b525a8a71dff0b1beb8",
      "blockNumber": "0x99df53",
      "gasUsed": "0xb51e",
      "effectiveGasPrice": "0x703af3cd",
      "from": "0xe21d134daf5159c467d8b2bfc0ece6dc9d406bb1",
      "to": "0x8d952c27ac46b1a0360144c6094ea6159a991a95",
      "contractAddress": null
    },
    {
      "status": "0x1",
      "cumulativeGasUsed": "0xf60327",
      "logs": [
        {
          "address": "0x8d952c27ac46b1a0360144c6094ea6159a991a95",
          "topics": [
            "0xddf252ad1be2c89b69c2b068fc378daa952ba7f163c4a11628f55a4df523b3ef",
            "0x000000000000000000000000e21d134daf5159c467d8b2bfc0ece6dc9d406bb1",
            "0x000000000000000000000000c223c0634c6312cb3bf23e847f1c21ae9ee9e907"
          ],
          "data": "0x0000000000000000000000000000000000000000000000008ac7230489e80000",
          "blockHash": "0xa1f057a584571fb95d3791aa4939a8566d526e8e4a751b525a8a71dff0b1beb8",
          "blockNumber": "0x99df53",
          "blockTimestamp": "0x696f4f38",
          "transactionHash": "0x19452f77705c4ca591c19fa9cbacecfa28a6812b07d359691e096f58c08072d3",
          "transactionIndex": "0x2a",
          "logIndex": "0x1d2",
          "removed": false
        },
        {
          "address": "0xc223c0634c6312cb3bf23e847f1c21ae9ee9e907",
          "topics": [
            "0xf1c0dd7e9b98bbff859029005ef89b127af049cd18df1a8d79f0b7e019911e56",
            "0x000000000000000000000000e21d134daf5159c467d8b2bfc0ece6dc9d406bb1",
            "0x0000000000000000000000008d952c27ac46b1a0360144c6094ea6159a991a95"
          ],
          "data": "0x0000000000000000000000000000000000000000000000008ac7230489e80000",
          "blockHash": "0xa1f057a584571fb95d3791aa4939a8566d526e8e4a751b525a8a71dff0b1beb8",
          "blockNumber": "0x99df53",
          "blockTimestamp": "0x696f4f38",
          "transactionHash": "0x19452f77705c4ca591c19fa9cbacecfa28a6812b07d359691e096f58c08072d3",
          "transactionIndex": "0x2a",
          "logIndex": "0x1d3",
          "removed": false
        }
      ],
      "logsBloom": "0x00000000000000000000000000000000040000000000000000000020000000000000000000000000000000000000000000000000020000000000000000000000040000000000000040000008000000000000000000000000000000000000000000000000000000000800000000000100000000000000000000000010000000000000000000000000000000000000000000000000000000000000000000000000000000000000000000000000040000008100000000000000000000400000000000000002004100000000000000000000010000008000000080000000400000000008000000000000000000000000000000000000000000000000000000000000",
      "type": "0x2",
      "transactionHash": "0x19452f77705c4ca591c19fa9cbacecfa28a6812b07d359691e096f58c08072d3",
      "transactionIndex": "0x2a",
      "blockHash": "0xa1f057a584571fb95d3791aa4939a8566d526e8e4a751b525a8a71dff0b1beb8",
      "blockNumber": "0x99df53",
      "gasUsed": "0x2c817",
      "effectiveGasPrice": "0x703af3cd",
      "from": "0xe21d134daf5159c467d8b2bfc0ece6dc9d406bb1",
      "to": "0xc223c0634c6312cb3bf23e847f1c21ae9ee9e907",
      "contractAddress": null
    },
    {
      "status": "0x1",
      "cumulativeGasUsed": "0xf928f0",
      "logs": [
        {
          "address": "0xb6c036875b7c36b2863fc40f61f019df0b57ccbd",
          "topics": [
            "0xddf252ad1be2c89b69c2b068fc378daa952ba7f163c4a11628f55a4df523b3ef",
            "0x000000000000000000000000e5543f72af9411936497dc7816eb4131bb705d3b",
            "0x0000000000000000000000000000000000000000000000000000000000000000"
          ],
          "data": "0x00000000000000000000000000000000000000000000000000000002540be400",
          "blockHash": "0xa1f057a584571fb95d3791aa4939a8566d526e8e4a751b525a8a71dff0b1beb8",
          "blockNumber": "0x99df53",
          "blockTimestamp": "0x696f4f38",
          "transactionHash": "0x37a6dda85b0d5cea0689c6cf730a119b8b7bf769abda0e2ccca96a5eb4e5304f",
          "transactionIndex": "0x2b",
          "logIndex": "0x1d4",
          "removed": false
        },
        {
          "address": "0x4d3922e731023cd5fba64f495e547d5f1b931128",
          "topics": [
            "0xddf252ad1be2c89b69c2b068fc378daa952ba7f163c4a11628f55a4df523b3ef",
            "0x000000000000000000000000b6c036875b7c36b2863fc40f61f019df0b57ccbd",
            "0x000000000000000000000000e5543f72af9411936497dc7816eb4131bb705d3b"
          ],
          "data": "0x00000000000000000000000000000000000000000000000000000002540be400",
          "blockHash": "0xa1f057a584571fb95d3791aa4939a8566d526e8e4a751b525a8a71dff0b1beb8",
          "blockNumber": "0x99df53",
          "blockTimestamp": "0x696f4f38",
          "transactionHash": "0x37a6dda85b0d5cea0689c6cf730a119b8b7bf769abda0e2ccca96a5eb4e5304f",
          "transactionIndex": "0x2b",
          "logIndex": "0x1d5",
          "removed": false
        },
        {
          "address": "0x4d3922e731023cd5fba64f495e547d5f1b931128",
          "topics": [
            "0xddf252ad1be2c89b69c2b068fc378daa952ba7f163c4a11628f55a4df523b3ef",
            "0x000000000000000000000000e5543f72af9411936497dc7816eb4131bb705d3b",
            "0x000000000000000000000000c223c0634c6312cb3bf23e847f1c21ae9ee9e907"
          ],
          "data": "0x00000000000000000000000000000000000000000000000000000002540be400",
          "blockHash": "0xa1f057a584571fb95d3791aa4939a8566d526e8e4a751b525a8a71dff0b1beb8",
          "blockNumber": "0x99df53",
          "blockTimestamp": "0x696f4f38",
          "transactionHash": "0x37a6dda85b0d5cea0689c6cf730a119b8b7bf769abda0e2ccca96a5eb4e5304f",
          "transactionIndex": "0x2b",
          "logIndex": "0x1d6",
          "removed": false
        },
        {
          "address": "0xe5543f72af9411936497dc7816eb4131bb705d3b",
          "topics": [
            "0x21346abbfb2233733d8597bb727c6716d6062c2edc0b4389bd76af7cdc2da736",
            "0x000000000000000000000000c223c0634c6312cb3bf23e847f1c21ae9ee9e907"
          ],
          "data": "0x00000000000000000000000000000000000000000000000000000002540be400",
          "blockHash": "0xa1f057a584571fb95d3791aa4939a8566d526e8e4a751b525a8a71dff0b1beb8",
          "blockNumber": "0x99df53",
          "blockTimestamp": "0x696f4f38",
          "transactionHash": "0x37a6dda85b0d5cea0689c6cf730a119b8b7bf769abda0e2ccca96a5eb4e5304f",
          "transactionIndex": "0x2b",
          "logIndex": "0x1d7",
          "removed": false
        },
        {
          "address": "0x4d3922e731023cd5fba64f495e547d5f1b931128",
          "topics": [
            "0xddf252ad1be2c89b69c2b068fc378daa952ba7f163c4a11628f55a4df523b3ef",
            "0x000000000000000000000000c223c0634c6312cb3bf23e847f1c21ae9ee9e907",
            "0x000000000000000000000000e21d134daf5159c467d8b2bfc0ece6dc9d406bb1"
          ],
          "data": "0x00000000000000000000000000000000000000000000000000000002540be400",
          "blockHash": "0xa1f057a584571fb95d3791aa4939a8566d526e8e4a751b525a8a71dff0b1beb8",
          "blockNumber": "0x99df53",
          "blockTimestamp": "0x696f4f38",
          "transactionHash": "0x37a6dda85b0d5cea0689c6cf730a119b8b7bf769abda0e2ccca96a5eb4e5304f",
          "transactionIndex": "0x2b",
          "logIndex": "0x1d8",
          "removed": false
        },
        {
          "address": "0xc223c0634c6312cb3bf23e847f1c21ae9ee9e907",
          "topics": [
            "0xeae9cfbc77fdd40ca899f36b608256063b2bc9d8178b0220f7ad513e178d6730",
            "0x000000000000000000000000e21d134daf5159c467d8b2bfc0ece6dc9d406bb1"
          ],
          "data": "0x00000000000000000000000000000000000000000000000000000002540be40000000000000000000000000000000000000000000000021e19e0c9bab2400000",
          "blockHash": "0xa1f057a584571fb95d3791aa4939a8566d526e8e4a751b525a8a71dff0b1beb8",
          "blockNumber": "0x99df53",
          "blockTimestamp": "0x696f4f38",
          "transactionHash": "0x37a6dda85b0d5cea0689c6cf730a119b8b7bf769abda0e2ccca96a5eb4e5304f",
          "transactionIndex": "0x2b",
          "logIndex": "0x1d9",
          "removed": false
        }
      ],
      "logsBloom": "0x0000000000000000000000000200200000000000400000000000000000000020000000000000000000000000000080000000000002000000000001000000a00004000000000000000000010890000001000000000000000000000000200000000000000002000000000000000000090000000000000000000000001000000000000000000000000000000000000000000000000200480000000000000000000000000000000000000000000004000000000000000800000000000040000000000000000200410000000000000000100000000000800000000040000000002000000a000000000000000000000000001000000000000000000000000000000000",
      "type": "0x2",
      "transactionHash": "0x37a6dda85b0d5cea0689c6cf730a119b8b7bf769abda0e2ccca96a5eb4e5304f",
      "transactionIndex": "0x2b",
      "blockHash": "0xa1f057a584571fb95d3791aa4939a8566d526e8e4a751b525a8a71dff0b1beb8",
      "blockNumber": "0x99df53",
      "gasUsed": "0x325c9",
      "effectiveGasPrice": "0x703af3cd",
      "from": "0xe21d134daf5159c467d8b2bfc0ece6dc9d406bb1",
      "to": "0xc223c0634c6312cb3bf23e847f1c21ae9ee9e907",
      "contractAddress": null
    },
    {
      "status": "0x1",
      "cumulativeGasUsed": "0xf9ddf6",
      "logs": [
        {
          "address": "0x4d3922e731023cd5fba64f495e547d5f1b931128",
          "topics": [
            "0x8c5be1e5ebec7d5bd14f71427d1e84f3dd0314c0f7b2291e5b200ac8c7c3b925",
            "0x000000000000000000000000e21d134daf5159c467d8b2bfc0ece6dc9d406bb1",
            "0x000000000000000000000000c223c0634c6312cb3bf23e847f1c21ae9ee9e907"
          ],
          "data": "0x00000000000000000000000000000000000000000000000000000002540be400",
          "blockHash": "0xa1f057a584571fb95d3791aa4939a8566d526e8e4a751b525a8a71dff0b1beb8",
          "blockNumber": "0x99df53",
          "blockTimestamp": "0x696f4f38",
          "transactionHash": "0x8c0257b54be920d08ea9513537a0f474c96b7f04776855527ada0252b6c323c8",
          "transactionIndex": "0x2c",
          "logIndex": "0x1da",
          "removed": false
        }
      ],
      "logsBloom": "0x00000000000000000000000000000000000000000000000000000000000000200000000000000000000000000000000000000000020000000000000000200000040000000000000000000000000000000000000000000000000000000000000000000000000000000000000000000000000000000000000000000000000000000000000000000000000000000000000000000000000000000000000000000000020000000000000000000000000000000000000000000000000000400000000000000000004100000000000000001000000000000000000000400000000000000018000000000000000000000000000000000000000000000000000000000000",
      "type": "0x2",
      "transactionHash": "0x8c0257b54be920d08ea9513537a0f474c96b7f04776855527ada0252b6c323c8",
      "transactionIndex": "0x2c",
      "blockHash": "0xa1f057a584571fb95d3791aa4939a8566d526e8e4a751b525a8a71dff0b1beb8",
      "blockNumber": "0x99df53",
      "gasUsed": "0xb506",
      "effectiveGasPrice": "0x703af3cd",
      "from": "0xe21d134daf5159c467d8b2bfc0ece6dc9d406bb1",
      "to": "0x4d3922e731023cd5fba64f495e547d5f1b931128",
      "contractAddress": null
    },
    {
      "status": "0x1",
      "cumulativeGasUsed": "0xfc22ec",
      "logs": [
        {
          "address": "0x4d3922e731023cd5fba64f495e547d5f1b931128",
          "topics": [
            "0xddf252ad1be2c89b69c2b068fc378daa952ba7f163c4a11628f55a4df523b3ef",
            "0x000000000000000000000000e21d134daf5159c467d8b2bfc0ece6dc9d406bb1",
            "0x000000000000000000000000c223c0634c6312cb3bf23e847f1c21ae9ee9e907"
          ],
          "data": "0x00000000000000000000000000000000000000000000000000000002540be400",
          "blockHash": "0xa1f057a584571fb95d3791aa4939a8566d526e8e4a751b525a8a71dff0b1beb8",
          "blockNumber": "0x99df53",
          "blockTimestamp": "0x696f4f38",
          "transactionHash": "0xbf919dd36bc54a3223c0603696eab44f770629c3c9cdccb80f96d67c7af15ad0",
          "transactionIndex": "0x2d",
          "logIndex": "0x1db",
          "removed": false
        },
        {
          "address": "0x4d3922e731023cd5fba64f495e547d5f1b931128",
          "topics": [
            "0xddf252ad1be2c89b69c2b068fc378daa952ba7f163c4a11628f55a4df523b3ef",
            "0x000000000000000000000000c223c0634c6312cb3bf23e847f1c21ae9ee9e907",
            "0x000000000000000000000000d0d211ccef07598946bb0df5ecee0bf75caf3ecc"
          ],
          "data": "0x0000000000000000000000000000000000000000000000000000000000000000",
          "blockHash": "0xa1f057a584571fb95d3791aa4939a8566d526e8e4a751b525a8a71dff0b1beb8",
          "blockNumber": "0x99df53",
          "blockTimestamp": "0x696f4f38",
          "transactionHash": "0xbf919dd36bc54a3223c0603696eab44f770629c3c9cdccb80f96d67c7af15ad0",
          "transactionIndex": "0x2d",
          "logIndex": "0x1dc",
          "removed": false
        },
        {
          "address": "0x4d3922e731023cd5fba64f495e547d5f1b931128",
          "topics": [
            "0xddf252ad1be2c89b69c2b068fc378daa952ba7f163c4a11628f55a4df523b3ef",
            "0x000000000000000000000000c223c0634c6312cb3bf23e847f1c21ae9ee9e907",
            "0x000000000000000000000000e5543f72af9411936497dc7816eb4131bb705d3b"
          ],
          "data": "0x00000000000000000000000000000000000000000000000000000002540be400",
          "blockHash": "0xa1f057a584571fb95d3791aa4939a8566d526e8e4a751b525a8a71dff0b1beb8",
          "blockNumber": "0x99df53",
          "blockTimestamp": "0x696f4f38",
          "transactionHash": "0xbf919dd36bc54a3223c0603696eab44f770629c3c9cdccb80f96d67c7af15ad0",
          "transactionIndex": "0x2d",
          "logIndex": "0x1dd",
          "removed": false
        },
        {
          "address": "0x4d3922e731023cd5fba64f495e547d5f1b931128",
          "topics": [
            "0xddf252ad1be2c89b69c2b068fc378daa952ba7f163c4a11628f55a4df523b3ef",
            "0x000000000000000000000000e5543f72af9411936497dc7816eb4131bb705d3b",
            "0x000000000000000000000000b6c036875b7c36b2863fc40f61f019df0b57ccbd"
          ],
          "data": "0x00000000000000000000000000000000000000000000000000000002540be400",
          "blockHash": "0xa1f057a584571fb95d3791aa4939a8566d526e8e4a751b525a8a71dff0b1beb8",
          "blockNumber": "0x99df53",
          "blockTimestamp": "0x696f4f38",
          "transactionHash": "0xbf919dd36bc54a3223c0603696eab44f770629c3c9cdccb80f96d67c7af15ad0",
          "transactionIndex": "0x2d",
          "logIndex": "0x1de",
          "removed": false
        },
        {
          "address": "0xb6c036875b7c36b2863fc40f61f019df0b57ccbd",
          "topics": [
            "0xddf252ad1be2c89b69c2b068fc378daa952ba7f163c4a11628f55a4df523b3ef",
            "0x0000000000000000000000000000000000000000000000000000000000000000",
            "0x000000000000000000000000e5543f72af9411936497dc7816eb4131bb705d3b"
          ],
          "data": "0x00000000000000000000000000000000000000000000000000000002540be400",
          "blockHash": "0xa1f057a584571fb95d3791aa4939a8566d526e8e4a751b525a8a71dff0b1beb8",
          "blockNumber": "0x99df53",
          "blockTimestamp": "0x696f4f38",
          "transactionHash": "0xbf919dd36bc54a3223c0603696eab44f770629c3c9cdccb80f96d67c7af15ad0",
          "transactionIndex": "0x2d",
          "logIndex": "0x1df",
          "removed": false
        },
        {
          "address": "0xe5543f72af9411936497dc7816eb4131bb705d3b",
          "topics": [
            "0xcdef96f1574732629b391b56d3b9d85642f07a450b545e40b0ffa14fcd10389b",
            "0x000000000000000000000000c223c0634c6312cb3bf23e847f1c21ae9ee9e907"
          ],
          "data": "0x00000000000000000000000000000000000000000000000000000002540be400",
          "blockHash": "0xa1f057a584571fb95d3791aa4939a8566d526e8e4a751b525a8a71dff0b1beb8",
          "blockNumber": "0x99df53",
          "blockTimestamp": "0x696f4f38",
          "transactionHash": "0xbf919dd36bc54a3223c0603696eab44f770629c3c9cdccb80f96d67c7af15ad0",
          "transactionIndex": "0x2d",
          "logIndex": "0x1e0",
          "removed": false
        },
        {
          "address": "0xc223c0634c6312cb3bf23e847f1c21ae9ee9e907",
          "topics": [
            "0x07178c166b5aef4d8409e6bbfd0e7b1ad42c92eb65903a5e5482166f3f4e62f0",
            "0x000000000000000000000000e21d134daf5159c467d8b2bfc0ece6dc9d406bb1"
          ],
          "data": "0x00000000000000000000000000000000000000000000000000000002540be400000000000000000000000000000000000000000000000000000000000000000000000000000000000000000000000000000000000000021e19e0c9bab2400000",
          "blockHash": "0xa1f057a584571fb95d3791aa4939a8566d526e8e4a751b525a8a71dff0b1beb8",
          "blockNumber": "0x99df53",
          "blockTimestamp": "0x696f4f38",
          "transactionHash": "0xbf919dd36bc54a3223c0603696eab44f770629c3c9cdccb80f96d67c7af15ad0",
          "transactionIndex": "0x2d",
          "logIndex": "0x1e1",
          "removed": false
        }
      ],
      "logsBloom": "0x00000000000000000000000102002000000000000000000000000000000000200000000000000000000000000000800000000000020080000000010000008000040000010000000000000108900000010000000000000000000000000000000000000000028000000000000000000900000080000000000000000010000000000000000000000000000000000000000000000002004800000000000000000000000000000000000000000000040000000000000000000000000000400000000000000002004100000000000000001000000000018000040000400000000020000008000000000000010000000000000000000000000000000000000000800000",
      "type": "0x2",
      "transactionHash": "0xbf919dd36bc54a3223c0603696eab44f770629c3c9cdccb80f96d67c7af15ad0",
      "transactionIndex": "0x2d",
      "blockHash": "0xa1f057a584571fb95d3791aa4939a8566d526e8e4a751b525a8a71dff0b1beb8",
      "blockNumber": "0x99df53",
      "gasUsed": "0x244f6",
      "effectiveGasPrice": "0x703af3cd",
      "from": "0xe21d134daf5159c467d8b2bfc0ece6dc9d406bb1",
      "to": "0xc223c0634c6312cb3bf23e847f1c21ae9ee9e907",
      "contractAddress": null
    },
    {
      "status": "0x1",
      "cumulativeGasUsed": "0xfd59b7",
      "logs": [
        {
          "address": "0x8d952c27ac46b1a0360144c6094ea6159a991a95",
          "topics": [
            "0xddf252ad1be2c89b69c2b068fc378daa952ba7f163c4a11628f55a4df523b3ef",
            "0x000000000000000000000000c223c0634c6312cb3bf23e847f1c21ae9ee9e907",
            "0x000000000000000000000000e21d134daf5159c467d8b2bfc0ece6dc9d406bb1"
          ],
          "data": "0x0000000000000000000000000000000000000000000000008ac7230489e80000",
          "blockHash": "0xa1f057a584571fb95d3791aa4939a8566d526e8e4a751b525a8a71dff0b1beb8",
          "blockNumber": "0x99df53",
          "blockTimestamp": "0x696f4f38",
          "transactionHash": "0x58004123172e2ada757b116226d9f205ca53d7616215c1aeaee7747294e02216",
          "transactionIndex": "0x2e",
          "logIndex": "0x1e2",
          "removed": false
        },
        {
          "address": "0xc223c0634c6312cb3bf23e847f1c21ae9ee9e907",
          "topics": [
            "0x45892a46e6cef329bb642da6d69846d324db43d19008edc141ed82382eda1bee",
            "0x000000000000000000000000e21d134daf5159c467d8b2bfc0ece6dc9d406bb1",
            "0x0000000000000000000000008d952c27ac46b1a0360144c6094ea6159a991a95"
          ],
          "data": "0x0000000000000000000000000000000000000000000000008ac7230489e80000",
          "blockHash": "0xa1f057a584571fb95d3791aa4939a8566d526e8e4a751b525a8a71dff0b1beb8",
          "blockNumber": "0x99df53",
          "blockTimestamp": "0x696f4f38",
          "transactionHash": "0x58004123172e2ada757b116226d9f205ca53d7616215c1aeaee7747294e02216",
          "transactionIndex": "0x2e",
          "logIndex": "0x1e3",
          "removed": false
        }
      ],
      "logsBloom": "0x00000000000000000000000000000000040000000000000000000020000000000000000000000000000000000000000000000000020000000000000000000000040000000000000040000008000000000000000000000000000000000040000000000000000000000000000000000120000000000000000000000010000020000000000000000000000000000000000000000000000000000000000000000000000000000000000000000000040000008100000000000000000000400000000000000002004100000000000000000000000000008000000000000000400000000008000000000000000000000000000000000000000000000000000000000000",
      "type": "0x2",
      "transactionHash": "0x58004123172e2ada757b116226d9f205ca53d7616215c1aeaee7747294e02216",
      "transactionIndex": "0x2e",
      "blockHash": "0xa1f057a584571fb95d3791aa4939a8566d526e8e4a751b525a8a71dff0b1beb8",
      "blockNumber": "0x99df53",
      "gasUsed": "0x136cb",
      "effectiveGasPrice": "0x703af3cd",
      "from": "0xe21d134daf5159c467d8b2bfc0ece6dc9d406bb1",
      "to": "0xc223c0634c6312cb3bf23e847f1c21ae9ee9e907",
      "contractAddress": null
    },
    {
      "status": "0x1",
      "cumulativeGasUsed": "0xfed5bc",
      "logs": [
        {
          "address": "0xb6c036875b7c36b2863fc40f61f019df0b57ccbd",
          "topics": [
            "0xddf252ad1be2c89b69c2b068fc378daa952ba7f163c4a11628f55a4df523b3ef",
            "0x000000000000000000000000e5543f72af9411936497dc7816eb4131bb705d3b",
            "0x0000000000000000000000000000000000000000000000000000000000000000"
          ],
          "data": "0x000000000000000000000000000000000000000000000000000000174876e800",
          "blockHash": "0xa1f057a584571fb95d3791aa4939a8566d526e8e4a751b525a8a71dff0b1beb8",
          "blockNumber": "0x99df53",
          "blockTimestamp": "0x696f4f38",
          "transactionHash": "0xdccb85e1b6a6950f9c61e0e3db1251a4855c0f35f5b94a976e9ba6ecd224d7b5",
          "transactionIndex": "0x2f",
          "logIndex": "0x1e4",
          "removed": false
        },
        {
          "address": "0x4d3922e731023cd5fba64f495e547d5f1b931128",
          "topics": [
            "0xddf252ad1be2c89b69c2b068fc378daa952ba7f163c4a11628f55a4df523b3ef",
            "0x000000000000000000000000b6c036875b7c36b2863fc40f61f019df0b57ccbd",
            "0x000000000000000000000000e5543f72af9411936497dc7816eb4131bb705d3b"
          ],
          "data": "0x000000000000000000000000000000000000000000000000000000174876e800",
          "blockHash": "0xa1f057a584571fb95d3791aa4939a8566d526e8e4a751b525a8a71dff0b1beb8",
          "blockNumber": "0x99df53",
          "blockTimestamp": "0x696f4f38",
          "transactionHash": "0xdccb85e1b6a6950f9c61e0e3db1251a4855c0f35f5b94a976e9ba6ecd224d7b5",
          "transactionIndex": "0x2f",
          "logIndex": "0x1e5",
          "removed": false
        },
        {
          "address": "0xe5543f72af9411936497dc7816eb4131bb705d3b",
          "topics": [
            "0xddf252ad1be2c89b69c2b068fc378daa952ba7f163c4a11628f55a4df523b3ef",
            "0x000000000000000000000000e21d134daf5159c467d8b2bfc0ece6dc9d406bb1",
            "0x0000000000000000000000000000000000000000000000000000000000000000"
          ],
          "data": "0x000000000000000000000000000000000000000000000000000000174876e800",
          "blockHash": "0xa1f057a584571fb95d3791aa4939a8566d526e8e4a751b525a8a71dff0b1beb8",
          "blockNumber": "0x99df53",
          "blockTimestamp": "0x696f4f38",
          "transactionHash": "0xdccb85e1b6a6950f9c61e0e3db1251a4855c0f35f5b94a976e9ba6ecd224d7b5",
          "transactionIndex": "0x2f",
          "logIndex": "0x1e6",
          "removed": false
        },
        {
          "address": "0x4d3922e731023cd5fba64f495e547d5f1b931128",
          "topics": [
            "0xddf252ad1be2c89b69c2b068fc378daa952ba7f163c4a11628f55a4df523b3ef",
            "0x000000000000000000000000e5543f72af9411936497dc7816eb4131bb705d3b",
            "0x000000000000000000000000e21d134daf5159c467d8b2bfc0ece6dc9d406bb1"
          ],
          "data": "0x000000000000000000000000000000000000000000000000000000174876e800",
          "blockHash": "0xa1f057a584571fb95d3791aa4939a8566d526e8e4a751b525a8a71dff0b1beb8",
          "blockNumber": "0x99df53",
          "blockTimestamp": "0x696f4f38",
          "transactionHash": "0xdccb85e1b6a6950f9c61e0e3db1251a4855c0f35f5b94a976e9ba6ecd224d7b5",
          "transactionIndex": "0x2f",
          "logIndex": "0x1e7",
          "removed": false
        },
        {
          "address": "0xe5543f72af9411936497dc7816eb4131bb705d3b",
          "topics": [
            "0xfbde797d201c681b91056529119e0b02407c7bb96a4a2c75c01fc9667232c8db",
            "0x000000000000000000000000e21d134daf5159c467d8b2bfc0ece6dc9d406bb1",
            "0x000000000000000000000000e21d134daf5159c467d8b2bfc0ece6dc9d406bb1",
            "0x000000000000000000000000e21d134daf5159c467d8b2bfc0ece6dc9d406bb1"
          ],
          "data": "0x000000000000000000000000000000000000000000000000000000174876e800000000000000000000000000000000000000000000000000000000174876e800",
          "blockHash": "0xa1f057a584571fb95d3791aa4939a8566d526e8e4a751b525a8a71dff0b1beb8",
          "blockNumber": "0x99df53",
          "blockTimestamp": "0x696f4f38",
          "transactionHash": "0xdccb85e1b6a6950f9c61e0e3db1251a4855c0f35f5b94a976e9ba6ecd224d7b5",
          "transactionIndex": "0x2f",
          "logIndex": "0x1e8",
          "removed": false
        }
      ],
      "logsBloom": "0x00000000000000400000000002002000000000000000000000000000000000200000000000000000000000000000800000000000020000000000010000008000000000000000000000000108900000010000000000000000000000000000000000000000020000000000000000000800000000000000000000000010000000000000000000000000000000000000000000000002004800000000000000000000000000000000000000000000000000020000000000000000000000000000000000000002000100000000000000001000000000000000000000400000000020000008000000000000000000000000000000000000000000000000000000000000",
      "type": "0x2",
      "transactionHash": "0xdccb85e1b6a6950f9c61e0e3db1251a4855c0f35f5b94a976e9ba6ecd224d7b5",
      "transactionIndex": "0x2f",
      "blockHash": "0xa1f057a584571fb95d3791aa4939a8566d526e8e4a751b525a8a71dff0b1beb8",
      "blockNumber": "0x99df53",
      "gasUsed": "0x17c05",
      "effectiveGasPrice": "0x703af3cd",
      "from": "0xe21d134daf5159c467d8b2bfc0ece6dc9d406bb1",
      "to": "0xe5543f72af9411936497dc7816eb4131bb705d3b",
      "contractAddress": null
    }
  ],
  "libraries": [],
  "pending": [],
  "returns": {},
  "timestamp": 1768902457716,
  "chain": 11155111,
  "commit": "7136648"
}